{
  "_format": "hh-sol-artifact-1",
  "contractName": "MyERC721",
  "sourceName": "contracts/MyERC721.sol",
  "abi": [
    {
      "inputs": [],
      "stateMutability": "nonpayable",
      "type": "constructor"
    },
    {
      "anonymous": false,
      "inputs": [
        {
          "indexed": true,
          "internalType": "address",
          "name": "owner",
          "type": "address"
        },
        {
          "indexed": true,
          "internalType": "address",
          "name": "approved",
          "type": "address"
        },
        {
          "indexed": true,
          "internalType": "uint256",
          "name": "tokenId",
          "type": "uint256"
        }
      ],
      "name": "Approval",
      "type": "event"
    },
    {
      "anonymous": false,
      "inputs": [
        {
          "indexed": true,
          "internalType": "address",
          "name": "owner",
          "type": "address"
        },
        {
          "indexed": true,
          "internalType": "address",
          "name": "operator",
          "type": "address"
        },
        {
          "indexed": false,
          "internalType": "bool",
          "name": "approved",
          "type": "bool"
        }
      ],
      "name": "ApprovalForAll",
      "type": "event"
    },
    {
      "anonymous": false,
      "inputs": [
        {
          "indexed": true,
          "internalType": "address",
          "name": "previousOwner",
          "type": "address"
        },
        {
          "indexed": true,
          "internalType": "address",
          "name": "newOwner",
          "type": "address"
        }
      ],
      "name": "OwnershipTransferred",
      "type": "event"
    },
    {
      "anonymous": false,
      "inputs": [
        {
          "indexed": true,
          "internalType": "address",
          "name": "from",
          "type": "address"
        },
        {
          "indexed": true,
          "internalType": "address",
          "name": "to",
          "type": "address"
        },
        {
          "indexed": true,
          "internalType": "uint256",
          "name": "tokenId",
          "type": "uint256"
        }
      ],
      "name": "Transfer",
      "type": "event"
    },
    {
      "inputs": [],
      "name": "GetAllSouvenir",
      "outputs": [
        {
          "components": [
            {
              "internalType": "uint256",
              "name": "index",
              "type": "uint256"
            },
            {
              "internalType": "address",
              "name": "Address",
              "type": "address"
            },
            {
              "internalType": "string",
              "name": "souvenir",
              "type": "string"
            }
          ],
          "internalType": "struct MyERC721.returnSouvenir[]",
          "name": "",
          "type": "tuple[]"
        }
      ],
      "stateMutability": "view",
      "type": "function"
    },
    {
      "inputs": [
        {
          "internalType": "address",
          "name": "to",
          "type": "address"
        },
        {
          "internalType": "uint256",
          "name": "tokenId",
          "type": "uint256"
        }
      ],
      "name": "approve",
      "outputs": [],
      "stateMutability": "nonpayable",
      "type": "function"
    },
    {
      "inputs": [
        {
          "internalType": "address",
          "name": "owner",
          "type": "address"
        }
      ],
      "name": "balanceOf",
      "outputs": [
        {
          "internalType": "uint256",
          "name": "",
          "type": "uint256"
        }
      ],
      "stateMutability": "view",
      "type": "function"
    },
    {
      "inputs": [
        {
          "internalType": "uint256",
          "name": "tokenId",
          "type": "uint256"
        }
      ],
      "name": "getApproved",
      "outputs": [
        {
          "internalType": "address",
          "name": "",
          "type": "address"
        }
      ],
      "stateMutability": "view",
      "type": "function"
    },
    {
      "inputs": [
        {
          "internalType": "address",
          "name": "owner",
          "type": "address"
        },
        {
          "internalType": "address",
          "name": "operator",
          "type": "address"
        }
      ],
      "name": "isApprovedForAll",
      "outputs": [
        {
          "internalType": "bool",
          "name": "",
          "type": "bool"
        }
      ],
      "stateMutability": "view",
      "type": "function"
    },
    {
      "inputs": [
        {
          "internalType": "address",
          "name": "_to",
          "type": "address"
        },
        {
          "internalType": "string",
          "name": "tokenURI_",
          "type": "string"
        }
      ],
      "name": "mint",
      "outputs": [],
      "stateMutability": "nonpayable",
      "type": "function"
    },
    {
      "inputs": [],
      "name": "name",
      "outputs": [
        {
          "internalType": "string",
          "name": "",
          "type": "string"
        }
      ],
      "stateMutability": "view",
      "type": "function"
    },
    {
      "inputs": [],
      "name": "owner",
      "outputs": [
        {
          "internalType": "address",
          "name": "",
          "type": "address"
        }
      ],
      "stateMutability": "view",
      "type": "function"
    },
    {
      "inputs": [
        {
          "internalType": "uint256",
          "name": "tokenId",
          "type": "uint256"
        }
      ],
      "name": "ownerOf",
      "outputs": [
        {
          "internalType": "address",
          "name": "",
          "type": "address"
        }
      ],
      "stateMutability": "view",
      "type": "function"
    },
    {
      "inputs": [],
      "name": "renounceOwnership",
      "outputs": [],
      "stateMutability": "nonpayable",
      "type": "function"
    },
    {
      "inputs": [
        {
          "internalType": "address",
          "name": "from",
          "type": "address"
        },
        {
          "internalType": "address",
          "name": "to",
          "type": "address"
        },
        {
          "internalType": "uint256",
          "name": "tokenId",
          "type": "uint256"
        }
      ],
      "name": "safeTransferFrom",
      "outputs": [],
      "stateMutability": "nonpayable",
      "type": "function"
    },
    {
      "inputs": [
        {
          "internalType": "address",
          "name": "from",
          "type": "address"
        },
        {
          "internalType": "address",
          "name": "to",
          "type": "address"
        },
        {
          "internalType": "uint256",
          "name": "tokenId",
          "type": "uint256"
        },
        {
          "internalType": "bytes",
          "name": "data",
          "type": "bytes"
        }
      ],
      "name": "safeTransferFrom",
      "outputs": [],
      "stateMutability": "nonpayable",
      "type": "function"
    },
    {
      "inputs": [
        {
          "internalType": "address",
          "name": "operator",
          "type": "address"
        },
        {
          "internalType": "bool",
          "name": "approved",
          "type": "bool"
        }
      ],
      "name": "setApprovalForAll",
      "outputs": [],
      "stateMutability": "nonpayable",
      "type": "function"
    },
    {
      "inputs": [
        {
          "internalType": "bytes4",
          "name": "interfaceId",
          "type": "bytes4"
        }
      ],
      "name": "supportsInterface",
      "outputs": [
        {
          "internalType": "bool",
          "name": "",
          "type": "bool"
        }
      ],
      "stateMutability": "view",
      "type": "function"
    },
    {
      "inputs": [],
      "name": "symbol",
      "outputs": [
        {
          "internalType": "string",
          "name": "",
          "type": "string"
        }
      ],
      "stateMutability": "view",
      "type": "function"
    },
    {
      "inputs": [
        {
          "internalType": "uint256",
          "name": "tokenId",
          "type": "uint256"
        }
      ],
      "name": "tokenURI",
      "outputs": [
        {
          "internalType": "string",
          "name": "",
          "type": "string"
        }
      ],
      "stateMutability": "view",
      "type": "function"
    },
    {
      "inputs": [
        {
          "internalType": "address",
          "name": "from",
          "type": "address"
        },
        {
          "internalType": "address",
          "name": "to",
          "type": "address"
        },
        {
          "internalType": "uint256",
          "name": "tokenId",
          "type": "uint256"
        }
      ],
      "name": "transferFrom",
      "outputs": [],
      "stateMutability": "nonpayable",
      "type": "function"
    },
    {
      "inputs": [
        {
          "internalType": "address",
          "name": "newOwner",
          "type": "address"
        }
      ],
      "name": "transferOwnership",
      "outputs": [],
      "stateMutability": "nonpayable",
      "type": "function"
    }
  ],
  "bytecode": "0x60806040523480156200001157600080fd5b506040518060400160405280600881526020017f47616d654974656d0000000000000000000000000000000000000000000000008152506040518060400160405280600381526020017f49544d0000000000000000000000000000000000000000000000000000000000815250816000908051906020019062000096929190620001a6565b508060019080519060200190620000af929190620001a6565b505050620000d2620000c6620000d860201b60201c565b620000e060201b60201c565b620002bb565b600033905090565b6000600660009054906101000a900473ffffffffffffffffffffffffffffffffffffffff16905081600660006101000a81548173ffffffffffffffffffffffffffffffffffffffff021916908373ffffffffffffffffffffffffffffffffffffffff1602179055508173ffffffffffffffffffffffffffffffffffffffff168173ffffffffffffffffffffffffffffffffffffffff167f8be0079c531659141344cd1fd0a4f28419497f9722a3daafe3b4186f6b6457e060405160405180910390a35050565b828054620001b49062000285565b90600052602060002090601f016020900481019282620001d8576000855562000224565b82601f10620001f357805160ff191683800117855562000224565b8280016001018555821562000224579182015b828111156200022357825182559160200191906001019062000206565b5b50905062000233919062000237565b5090565b5b808211156200025257600081600090555060010162000238565b5090565b7f4e487b7100000000000000000000000000000000000000000000000000000000600052602260045260246000fd5b600060028204905060018216806200029e57607f821691505b60208210811415620002b557620002b462000256565b5b50919050565b612e9180620002cb6000396000f3fe608060405234801561001057600080fd5b50600436106101165760003560e01c80638da5cb5b116100a2578063b88d4fde11610071578063b88d4fde146102cd578063c87b56dd146102e9578063d0def52114610319578063e985e9c514610335578063f2fde38b1461036557610116565b80638da5cb5b1461025757806395d89b411461027557806397a4c6de14610293578063a22cb465146102b157610116565b806323b872dd116100e957806323b872dd146101b557806342842e0e146101d15780636352211e146101ed57806370a082311461021d578063715018a61461024d57610116565b806301ffc9a71461011b57806306fdde031461014b578063081812fc14610169578063095ea7b314610199575b600080fd5b61013560048036038101906101309190611c59565b610381565b6040516101429190611ca1565b60405180910390f35b610153610463565b6040516101609190611d55565b60405180910390f35b610183600480360381019061017e9190611dad565b6104f5565b6040516101909190611e1b565b60405180910390f35b6101b360048036038101906101ae9190611e62565b61053b565b005b6101cf60048036038101906101ca9190611ea2565b610653565b005b6101eb60048036038101906101e69190611ea2565b6106b3565b005b61020760048036038101906102029190611dad565b6106d3565b6040516102149190611e1b565b60405180910390f35b61023760048036038101906102329190611ef5565b610785565b6040516102449190611f31565b60405180910390f35b61025561083d565b005b61025f610851565b60405161026c9190611e1b565b60405180910390f35b61027d61087b565b60405161028a9190611d55565b60405180910390f35b61029b61090d565b6040516102a891906120c6565b60405180910390f35b6102cb60048036038101906102c69190612114565b610b2d565b005b6102e760048036038101906102e29190612289565b610b43565b005b61030360048036038101906102fe9190611dad565b610ba5565b6040516103109190611d55565b60405180910390f35b610333600480360381019061032e91906123ad565b610c0d565b005b61034f600480360381019061034a9190612409565b610c98565b60405161035c9190611ca1565b60405180910390f35b61037f600480360381019061037a9190611ef5565b610d2c565b005b60007f80ac58cd000000000000000000000000000000000000000000000000000000007bffffffffffffffffffffffffffffffffffffffffffffffffffffffff1916827bffffffffffffffffffffffffffffffffffffffffffffffffffffffff1916148061044c57507f5b5e139f000000000000000000000000000000000000000000000000000000007bffffffffffffffffffffffffffffffffffffffffffffffffffffffff1916827bffffffffffffffffffffffffffffffffffffffffffffffffffffffff1916145b8061045c575061045b82610db0565b5b9050919050565b60606000805461047290612478565b80601f016020809104026020016040519081016040528092919081815260200182805461049e90612478565b80156104eb5780601f106104c0576101008083540402835291602001916104eb565b820191906000526020600020905b8154815290600101906020018083116104ce57829003601f168201915b5050505050905090565b600061050082610e1a565b6004600083815260200190815260200160002060009054906101000a900473ffffffffffffffffffffffffffffffffffffffff169050919050565b6000610546826106d3565b90508073ffffffffffffffffffffffffffffffffffffffff168373ffffffffffffffffffffffffffffffffffffffff1614156105b7576040517f08c379a00000000000000000000000000000000000000000000000000000000081526004016105ae9061251c565b60405180910390fd5b8073ffffffffffffffffffffffffffffffffffffffff166105d6610e65565b73ffffffffffffffffffffffffffffffffffffffff1614806106055750610604816105ff610e65565b610c98565b5b610644576040517f08c379a000000000000000000000000000000000000000000000000000000000815260040161063b906125ae565b60405180910390fd5b61064e8383610e6d565b505050565b61066461065e610e65565b82610f26565b6106a3576040517f08c379a000000000000000000000000000000000000000000000000000000000815260040161069a90612640565b60405180910390fd5b6106ae838383610fbb565b505050565b6106ce83838360405180602001604052806000815250610b43565b505050565b6000806002600084815260200190815260200160002060009054906101000a900473ffffffffffffffffffffffffffffffffffffffff169050600073ffffffffffffffffffffffffffffffffffffffff168173ffffffffffffffffffffffffffffffffffffffff16141561077c576040517f08c379a0000000000000000000000000000000000000000000000000000000008152600401610773906126ac565b60405180910390fd5b80915050919050565b60008073ffffffffffffffffffffffffffffffffffffffff168273ffffffffffffffffffffffffffffffffffffffff1614156107f6576040517f08c379a00000000000000000000000000000000000000000000000000000000081526004016107ed9061273e565b60405180910390fd5b600360008373ffffffffffffffffffffffffffffffffffffffff1673ffffffffffffffffffffffffffffffffffffffff168152602001908152602001600020549050919050565b610845611222565b61084f60006112a0565b565b6000600660009054906101000a900473ffffffffffffffffffffffffffffffffffffffff16905090565b60606001805461088a90612478565b80601f01602080910402602001604051908101604052809291908181526020018280546108b690612478565b80156109035780601f106108d857610100808354040283529160200191610903565b820191906000526020600020905b8154815290600101906020018083116108e657829003601f168201915b5050505050905090565b6060600061091b6007611366565b67ffffffffffffffff8111156109345761093361215e565b5b60405190808252806020026020018201604052801561096d57816020015b61095a611b13565b8152602001906001900390816109525790505b5090506000600190505b6109816007611366565b8111610b25578082600183610996919061278d565b815181106109a7576109a66127c1565b5b602002602001015160000181815250506009600082815260200190815260200160002060009054906101000a900473ffffffffffffffffffffffffffffffffffffffff16826001836109f9919061278d565b81518110610a0a57610a096127c1565b5b60200260200101516020019073ffffffffffffffffffffffffffffffffffffffff16908173ffffffffffffffffffffffffffffffffffffffff1681525050600860008281526020019081526020016000208054610a6690612478565b80601f0160208091040260200160405190810160405280929190818152602001828054610a9290612478565b8015610adf5780601f10610ab457610100808354040283529160200191610adf565b820191906000526020600020905b815481529060010190602001808311610ac257829003601f168201915b505050505082600183610af2919061278d565b81518110610b0357610b026127c1565b5b6020026020010151604001819052508080610b1d906127f0565b915050610977565b508091505090565b610b3f610b38610e65565b8383611374565b5050565b610b54610b4e610e65565b83610f26565b610b93576040517f08c379a0000000000000000000000000000000000000000000000000000000008152600401610b8a90612640565b60405180910390fd5b610b9f848484846114e1565b50505050565b6060610bb082610e1a565b6000610bba61153d565b90506000815111610bda5760405180602001604052806000815250610c05565b80610be484611554565b604051602001610bf5929190612875565b6040516020818303038152906040525b915050919050565b610c15611222565b610c1f60076116b5565b6000610c2b6007611366565b9050610c3783826116cb565b610c4181836118a5565b826009600083815260200190815260200160002060006101000a81548173ffffffffffffffffffffffffffffffffffffffff021916908373ffffffffffffffffffffffffffffffffffffffff160217905550505050565b6000600560008473ffffffffffffffffffffffffffffffffffffffff1673ffffffffffffffffffffffffffffffffffffffff16815260200190815260200160002060008373ffffffffffffffffffffffffffffffffffffffff1673ffffffffffffffffffffffffffffffffffffffff16815260200190815260200160002060009054906101000a900460ff16905092915050565b610d34611222565b600073ffffffffffffffffffffffffffffffffffffffff168173ffffffffffffffffffffffffffffffffffffffff161415610da4576040517f08c379a0000000000000000000000000000000000000000000000000000000008152600401610d9b9061290b565b60405180910390fd5b610dad816112a0565b50565b60007f01ffc9a7000000000000000000000000000000000000000000000000000000007bffffffffffffffffffffffffffffffffffffffffffffffffffffffff1916827bffffffffffffffffffffffffffffffffffffffffffffffffffffffff1916149050919050565b610e23816118e3565b610e62576040517f08c379a0000000000000000000000000000000000000000000000000000000008152600401610e59906126ac565b60405180910390fd5b50565b600033905090565b816004600083815260200190815260200160002060006101000a81548173ffffffffffffffffffffffffffffffffffffffff021916908373ffffffffffffffffffffffffffffffffffffffff160217905550808273ffffffffffffffffffffffffffffffffffffffff16610ee0836106d3565b73ffffffffffffffffffffffffffffffffffffffff167f8c5be1e5ebec7d5bd14f71427d1e84f3dd0314c0f7b2291e5b200ac8c7c3b92560405160405180910390a45050565b600080610f32836106d3565b90508073ffffffffffffffffffffffffffffffffffffffff168473ffffffffffffffffffffffffffffffffffffffff161480610f745750610f738185610c98565b5b80610fb257508373ffffffffffffffffffffffffffffffffffffffff16610f9a846104f5565b73ffffffffffffffffffffffffffffffffffffffff16145b91505092915050565b8273ffffffffffffffffffffffffffffffffffffffff16610fdb826106d3565b73ffffffffffffffffffffffffffffffffffffffff1614611031576040517f08c379a00000000000000000000000000000000000000000000000000000000081526004016110289061299d565b60405180910390fd5b600073ffffffffffffffffffffffffffffffffffffffff168273ffffffffffffffffffffffffffffffffffffffff1614156110a1576040517f08c379a000000000000000000000000000000000000000000000000000000000815260040161109890612a2f565b60405180910390fd5b6110ac83838361194f565b6110b7600082610e6d565b6001600360008573ffffffffffffffffffffffffffffffffffffffff1673ffffffffffffffffffffffffffffffffffffffff1681526020019081526020016000206000828254611107919061278d565b925050819055506001600360008473ffffffffffffffffffffffffffffffffffffffff1673ffffffffffffffffffffffffffffffffffffffff168152602001908152602001600020600082825461115e9190612a4f565b92505081905550816002600083815260200190815260200160002060006101000a81548173ffffffffffffffffffffffffffffffffffffffff021916908373ffffffffffffffffffffffffffffffffffffffff160217905550808273ffffffffffffffffffffffffffffffffffffffff168473ffffffffffffffffffffffffffffffffffffffff167fddf252ad1be2c89b69c2b068fc378daa952ba7f163c4a11628f55a4df523b3ef60405160405180910390a461121d838383611954565b505050565b61122a610e65565b73ffffffffffffffffffffffffffffffffffffffff16611248610851565b73ffffffffffffffffffffffffffffffffffffffff161461129e576040517f08c379a000000000000000000000000000000000000000000000000000000000815260040161129590612af1565b60405180910390fd5b565b6000600660009054906101000a900473ffffffffffffffffffffffffffffffffffffffff16905081600660006101000a81548173ffffffffffffffffffffffffffffffffffffffff021916908373ffffffffffffffffffffffffffffffffffffffff1602179055508173ffffffffffffffffffffffffffffffffffffffff168173ffffffffffffffffffffffffffffffffffffffff167f8be0079c531659141344cd1fd0a4f28419497f9722a3daafe3b4186f6b6457e060405160405180910390a35050565b600081600001549050919050565b8173ffffffffffffffffffffffffffffffffffffffff168373ffffffffffffffffffffffffffffffffffffffff1614156113e3576040517f08c379a00000000000000000000000000000000000000000000000000000000081526004016113da90612b5d565b60405180910390fd5b80600560008573ffffffffffffffffffffffffffffffffffffffff1673ffffffffffffffffffffffffffffffffffffffff16815260200190815260200160002060008473ffffffffffffffffffffffffffffffffffffffff1673ffffffffffffffffffffffffffffffffffffffff16815260200190815260200160002060006101000a81548160ff0219169083151502179055508173ffffffffffffffffffffffffffffffffffffffff168373ffffffffffffffffffffffffffffffffffffffff167f17307eab39ab6107e8899845ad3d59bd9653f200f220920489ca2b5937696c31836040516114d49190611ca1565b60405180910390a3505050565b6114ec848484610fbb565b6114f884848484611959565b611537576040517f08c379a000000000000000000000000000000000000000000000000000000000815260040161152e90612bef565b60405180910390fd5b50505050565b606060405180602001604052806000815250905090565b6060600082141561159c576040518060400160405280600181526020017f300000000000000000000000000000000000000000000000000000000000000081525090506116b0565b600082905060005b600082146115ce5780806115b7906127f0565b915050600a826115c79190612c3e565b91506115a4565b60008167ffffffffffffffff8111156115ea576115e961215e565b5b6040519080825280601f01601f19166020018201604052801561161c5781602001600182028036833780820191505090505b5090505b600085146116a957600182611635919061278d565b9150600a856116449190612c6f565b60306116509190612a4f565b60f81b818381518110611666576116656127c1565b5b60200101907effffffffffffffffffffffffffffffffffffffffffffffffffffffffffffff1916908160001a905350600a856116a29190612c3e565b9450611620565b8093505050505b919050565b6001816000016000828254019250508190555050565b600073ffffffffffffffffffffffffffffffffffffffff168273ffffffffffffffffffffffffffffffffffffffff16141561173b576040517f08c379a000000000000000000000000000000000000000000000000000000000815260040161173290612cec565b60405180910390fd5b611744816118e3565b15611784576040517f08c379a000000000000000000000000000000000000000000000000000000000815260040161177b90612d58565b60405180910390fd5b6117906000838361194f565b6001600360008473ffffffffffffffffffffffffffffffffffffffff1673ffffffffffffffffffffffffffffffffffffffff16815260200190815260200160002060008282546117e09190612a4f565b92505081905550816002600083815260200190815260200160002060006101000a81548173ffffffffffffffffffffffffffffffffffffffff021916908373ffffffffffffffffffffffffffffffffffffffff160217905550808273ffffffffffffffffffffffffffffffffffffffff16600073ffffffffffffffffffffffffffffffffffffffff167fddf252ad1be2c89b69c2b068fc378daa952ba7f163c4a11628f55a4df523b3ef60405160405180910390a46118a160008383611954565b5050565b6118ae826118e3565b6118b757600080fd5b806008600084815260200190815260200160002090805190602001906118de929190611b4a565b505050565b60008073ffffffffffffffffffffffffffffffffffffffff166002600084815260200190815260200160002060009054906101000a900473ffffffffffffffffffffffffffffffffffffffff1673ffffffffffffffffffffffffffffffffffffffff1614159050919050565b505050565b505050565b600061197a8473ffffffffffffffffffffffffffffffffffffffff16611af0565b15611ae3578373ffffffffffffffffffffffffffffffffffffffff1663150b7a026119a3610e65565b8786866040518563ffffffff1660e01b81526004016119c59493929190612dcd565b602060405180830381600087803b1580156119df57600080fd5b505af1925050508015611a1057506040513d601f19601f82011682018060405250810190611a0d9190612e2e565b60015b611a93573d8060008114611a40576040519150601f19603f3d011682016040523d82523d6000602084013e611a45565b606091505b50600081511415611a8b576040517f08c379a0000000000000000000000000000000000000000000000000000000008152600401611a8290612bef565b60405180910390fd5b805181602001fd5b63150b7a0260e01b7bffffffffffffffffffffffffffffffffffffffffffffffffffffffff1916817bffffffffffffffffffffffffffffffffffffffffffffffffffffffff191614915050611ae8565b600190505b949350505050565b6000808273ffffffffffffffffffffffffffffffffffffffff163b119050919050565b604051806060016040528060008152602001600073ffffffffffffffffffffffffffffffffffffffff168152602001606081525090565b828054611b5690612478565b90600052602060002090601f016020900481019282611b785760008555611bbf565b82601f10611b9157805160ff1916838001178555611bbf565b82800160010185558215611bbf579182015b82811115611bbe578251825591602001919060010190611ba3565b5b509050611bcc9190611bd0565b5090565b5b80821115611be9576000816000905550600101611bd1565b5090565b6000604051905090565b600080fd5b600080fd5b60007fffffffff0000000000000000000000000000000000000000000000000000000082169050919050565b611c3681611c01565b8114611c4157600080fd5b50565b600081359050611c5381611c2d565b92915050565b600060208284031215611c6f57611c6e611bf7565b5b6000611c7d84828501611c44565b91505092915050565b60008115159050919050565b611c9b81611c86565b82525050565b6000602082019050611cb66000830184611c92565b92915050565b600081519050919050565b600082825260208201905092915050565b60005b83811015611cf6578082015181840152602081019050611cdb565b83811115611d05576000848401525b50505050565b6000601f19601f8301169050919050565b6000611d2782611cbc565b611d318185611cc7565b9350611d41818560208601611cd8565b611d4a81611d0b565b840191505092915050565b60006020820190508181036000830152611d6f8184611d1c565b905092915050565b6000819050919050565b611d8a81611d77565b8114611d9557600080fd5b50565b600081359050611da781611d81565b92915050565b600060208284031215611dc357611dc2611bf7565b5b6000611dd184828501611d98565b91505092915050565b600073ffffffffffffffffffffffffffffffffffffffff82169050919050565b6000611e0582611dda565b9050919050565b611e1581611dfa565b82525050565b6000602082019050611e306000830184611e0c565b92915050565b611e3f81611dfa565b8114611e4a57600080fd5b50565b600081359050611e5c81611e36565b92915050565b60008060408385031215611e7957611e78611bf7565b5b6000611e8785828601611e4d565b9250506020611e9885828601611d98565b9150509250929050565b600080600060608486031215611ebb57611eba611bf7565b5b6000611ec986828701611e4d565b9350506020611eda86828701611e4d565b9250506040611eeb86828701611d98565b9150509250925092565b600060208284031215611f0b57611f0a611bf7565b5b6000611f1984828501611e4d565b91505092915050565b611f2b81611d77565b82525050565b6000602082019050611f466000830184611f22565b92915050565b600081519050919050565b600082825260208201905092915050565b6000819050602082019050919050565b611f8181611d77565b82525050565b611f9081611dfa565b82525050565b600082825260208201905092915050565b6000611fb282611cbc565b611fbc8185611f96565b9350611fcc818560208601611cd8565b611fd581611d0b565b840191505092915050565b6000606083016000830151611ff86000860182611f78565b50602083015161200b6020860182611f87565b50604083015184820360408601526120238282611fa7565b9150508091505092915050565b600061203c8383611fe0565b905092915050565b6000602082019050919050565b600061205c82611f4c565b6120668185611f57565b93508360208202850161207885611f68565b8060005b858110156120b457848403895281516120958582612030565b94506120a083612044565b925060208a0199505060018101905061207c565b50829750879550505050505092915050565b600060208201905081810360008301526120e08184612051565b905092915050565b6120f181611c86565b81146120fc57600080fd5b50565b60008135905061210e816120e8565b92915050565b6000806040838503121561212b5761212a611bf7565b5b600061213985828601611e4d565b925050602061214a858286016120ff565b9150509250929050565b600080fd5b600080fd5b7f4e487b7100000000000000000000000000000000000000000000000000000000600052604160045260246000fd5b61219682611d0b565b810181811067ffffffffffffffff821117156121b5576121b461215e565b5b80604052505050565b60006121c8611bed565b90506121d4828261218d565b919050565b600067ffffffffffffffff8211156121f4576121f361215e565b5b6121fd82611d0b565b9050602081019050919050565b82818337600083830152505050565b600061222c612227846121d9565b6121be565b90508281526020810184848401111561224857612247612159565b5b61225384828561220a565b509392505050565b600082601f8301126122705761226f612154565b5b8135612280848260208601612219565b91505092915050565b600080600080608085870312156122a3576122a2611bf7565b5b60006122b187828801611e4d565b94505060206122c287828801611e4d565b93505060406122d387828801611d98565b925050606085013567ffffffffffffffff8111156122f4576122f3611bfc565b5b6123008782880161225b565b91505092959194509250565b600067ffffffffffffffff8211156123275761232661215e565b5b61233082611d0b565b9050602081019050919050565b600061235061234b8461230c565b6121be565b90508281526020810184848401111561236c5761236b612159565b5b61237784828561220a565b509392505050565b600082601f83011261239457612393612154565b5b81356123a484826020860161233d565b91505092915050565b600080604083850312156123c4576123c3611bf7565b5b60006123d285828601611e4d565b925050602083013567ffffffffffffffff8111156123f3576123f2611bfc565b5b6123ff8582860161237f565b9150509250929050565b600080604083850312156124205761241f611bf7565b5b600061242e85828601611e4d565b925050602061243f85828601611e4d565b9150509250929050565b7f4e487b7100000000000000000000000000000000000000000000000000000000600052602260045260246000fd5b6000600282049050600182168061249057607f821691505b602082108114156124a4576124a3612449565b5b50919050565b7f4552433732313a20617070726f76616c20746f2063757272656e74206f776e6560008201527f7200000000000000000000000000000000000000000000000000000000000000602082015250565b6000612506602183611cc7565b9150612511826124aa565b604082019050919050565b60006020820190508181036000830152612535816124f9565b9050919050565b7f4552433732313a20617070726f76652063616c6c6572206973206e6f7420746f60008201527f6b656e206f776e6572206e6f7220617070726f76656420666f7220616c6c0000602082015250565b6000612598603e83611cc7565b91506125a38261253c565b604082019050919050565b600060208201905081810360008301526125c78161258b565b9050919050565b7f4552433732313a2063616c6c6572206973206e6f7420746f6b656e206f776e6560008201527f72206e6f7220617070726f766564000000000000000000000000000000000000602082015250565b600061262a602e83611cc7565b9150612635826125ce565b604082019050919050565b600060208201905081810360008301526126598161261d565b9050919050565b7f4552433732313a20696e76616c696420746f6b656e2049440000000000000000600082015250565b6000612696601883611cc7565b91506126a182612660565b602082019050919050565b600060208201905081810360008301526126c581612689565b9050919050565b7f4552433732313a2061646472657373207a65726f206973206e6f74206120766160008201527f6c6964206f776e65720000000000000000000000000000000000000000000000602082015250565b6000612728602983611cc7565b9150612733826126cc565b604082019050919050565b600060208201905081810360008301526127578161271b565b9050919050565b7f4e487b7100000000000000000000000000000000000000000000000000000000600052601160045260246000fd5b600061279882611d77565b91506127a383611d77565b9250828210156127b6576127b561275e565b5b828203905092915050565b7f4e487b7100000000000000000000000000000000000000000000000000000000600052603260045260246000fd5b60006127fb82611d77565b91507fffffffffffffffffffffffffffffffffffffffffffffffffffffffffffffffff82141561282e5761282d61275e565b5b600182019050919050565b600081905092915050565b600061284f82611cbc565b6128598185612839565b9350612869818560208601611cd8565b80840191505092915050565b60006128818285612844565b915061288d8284612844565b91508190509392505050565b7f4f776e61626c653a206e6577206f776e657220697320746865207a65726f206160008201527f6464726573730000000000000000000000000000000000000000000000000000602082015250565b60006128f5602683611cc7565b915061290082612899565b604082019050919050565b60006020820190508181036000830152612924816128e8565b9050919050565b7f4552433732313a207472616e736665722066726f6d20696e636f72726563742060008201527f6f776e6572000000000000000000000000000000000000000000000000000000602082015250565b6000612987602583611cc7565b91506129928261292b565b604082019050919050565b600060208201905081810360008301526129b68161297a565b9050919050565b7f4552433732313a207472616e7366657220746f20746865207a65726f2061646460008201527f7265737300000000000000000000000000000000000000000000000000000000602082015250565b6000612a19602483611cc7565b9150612a24826129bd565b604082019050919050565b60006020820190508181036000830152612a4881612a0c565b9050919050565b6000612a5a82611d77565b9150612a6583611d77565b9250827fffffffffffffffffffffffffffffffffffffffffffffffffffffffffffffffff03821115612a9a57612a9961275e565b5b828201905092915050565b7f4f776e61626c653a2063616c6c6572206973206e6f7420746865206f776e6572600082015250565b6000612adb602083611cc7565b9150612ae682612aa5565b602082019050919050565b60006020820190508181036000830152612b0a81612ace565b9050919050565b7f4552433732313a20617070726f766520746f2063616c6c657200000000000000600082015250565b6000612b47601983611cc7565b9150612b5282612b11565b602082019050919050565b60006020820190508181036000830152612b7681612b3a565b9050919050565b7f4552433732313a207472616e7366657220746f206e6f6e20455243373231526560008201527f63656976657220696d706c656d656e7465720000000000000000000000000000602082015250565b6000612bd9603283611cc7565b9150612be482612b7d565b604082019050919050565b60006020820190508181036000830152612c0881612bcc565b9050919050565b7f4e487b7100000000000000000000000000000000000000000000000000000000600052601260045260246000fd5b6000612c4982611d77565b9150612c5483611d77565b925082612c6457612c63612c0f565b5b828204905092915050565b6000612c7a82611d77565b9150612c8583611d77565b925082612c9557612c94612c0f565b5b828206905092915050565b7f4552433732313a206d696e7420746f20746865207a65726f2061646472657373600082015250565b6000612cd6602083611cc7565b9150612ce182612ca0565b602082019050919050565b60006020820190508181036000830152612d0581612cc9565b9050919050565b7f4552433732313a20746f6b656e20616c7265616479206d696e74656400000000600082015250565b6000612d42601c83611cc7565b9150612d4d82612d0c565b602082019050919050565b60006020820190508181036000830152612d7181612d35565b9050919050565b600081519050919050565b600082825260208201905092915050565b6000612d9f82612d78565b612da98185612d83565b9350612db9818560208601611cd8565b612dc281611d0b565b840191505092915050565b6000608082019050612de26000830187611e0c565b612def6020830186611e0c565b612dfc6040830185611f22565b8181036060830152612e0e8184612d94565b905095945050505050565b600081519050612e2881611c2d565b92915050565b600060208284031215612e4457612e43611bf7565b5b6000612e5284828501612e19565b9150509291505056fea264697066735822122069504f5a723bf9f7da72f75286c618084bac4d20e1513785dee4a5c53c3388f164736f6c63430008090033",
  "linkReferences": {},
  "deployedLinkReferences": {}
}