{
  "_format": "hh-sol-artifact-1",
  "contractName": "StudentSocietyDAO",
  "sourceName": "contracts/StudentSocietyDAO.sol",
  "abi": [
    {
      "inputs": [],
      "stateMutability": "nonpayable",
      "type": "constructor"
    },
    {
      "anonymous": false,
      "inputs": [
        {
          "indexed": false,
          "internalType": "uint256",
          "name": "proposalIndex",
          "type": "uint256"
        },
        {
          "indexed": false,
          "internalType": "uint256",
          "name": "timestamp",
          "type": "uint256"
        }
      ],
      "name": "ProposalInitiated",
      "type": "event"
    },
    {
      "anonymous": false,
      "inputs": [
        {
          "indexed": false,
          "internalType": "uint32",
          "name": "input",
          "type": "uint32"
        }
      ],
      "name": "constructed",
      "type": "event"
    },
    {
      "anonymous": false,
      "inputs": [
        {
          "indexed": false,
          "internalType": "uint32",
          "name": "input",
          "type": "uint32"
        }
      ],
      "name": "getProposalEvent",
      "type": "event"
    },
    {
      "anonymous": false,
      "inputs": [
        {
          "indexed": false,
          "internalType": "address",
          "name": "ad",
          "type": "address"
        },
        {
          "indexed": false,
          "internalType": "uint256",
          "name": "",
          "type": "uint256"
        }
      ],
      "name": "voteAgainstEvent",
      "type": "event"
    },
    {
      "anonymous": false,
      "inputs": [
        {
          "indexed": false,
          "internalType": "address",
          "name": "ad",
          "type": "address"
        },
        {
          "indexed": false,
          "internalType": "uint256",
          "name": "",
          "type": "uint256"
        }
      ],
      "name": "voteForEvent",
      "type": "event"
    },
    {
      "inputs": [
        {
          "internalType": "address",
          "name": "_to",
          "type": "address"
        },
        {
          "internalType": "string",
          "name": "souvenir",
          "type": "string"
        }
      ],
      "name": "addSouvenir",
      "outputs": [],
      "stateMutability": "nonpayable",
      "type": "function"
    },
    {
      "inputs": [],
      "name": "getAllPassCount",
      "outputs": [
        {
          "components": [
            {
              "internalType": "address",
              "name": "Address",
              "type": "address"
            },
            {
              "internalType": "uint256",
              "name": "Count",
              "type": "uint256"
            }
          ],
          "internalType": "struct StudentSocietyDAO.returnPassCountStruct[]",
          "name": "",
          "type": "tuple[]"
        }
      ],
      "stateMutability": "view",
      "type": "function"
    },
    {
      "inputs": [],
      "name": "getBalance",
      "outputs": [
        {
          "internalType": "uint256",
          "name": "",
          "type": "uint256"
        }
      ],
      "stateMutability": "view",
      "type": "function"
    },
    {
      "inputs": [],
      "name": "getPassCount",
      "outputs": [
        {
          "internalType": "uint256",
          "name": "",
          "type": "uint256"
        }
      ],
      "stateMutability": "view",
      "type": "function"
    },
    {
      "inputs": [
        {
          "internalType": "address",
          "name": "cur",
          "type": "address"
        }
      ],
      "name": "getProposals",
      "outputs": [
        {
          "components": [
            {
              "internalType": "uint256",
              "name": "index",
              "type": "uint256"
            },
            {
              "internalType": "address",
              "name": "proposer",
              "type": "address"
            },
            {
              "internalType": "uint256",
              "name": "startTime",
              "type": "uint256"
            },
            {
              "internalType": "uint256",
              "name": "duration",
              "type": "uint256"
            },
            {
              "internalType": "bool",
              "name": "state",
              "type": "bool"
            },
            {
              "internalType": "uint256",
              "name": "approverCount",
              "type": "uint256"
            },
            {
              "internalType": "uint256",
              "name": "opponentCount",
              "type": "uint256"
            },
            {
              "internalType": "string",
              "name": "description",
              "type": "string"
            },
            {
              "internalType": "bool",
              "name": "canvote",
              "type": "bool"
            }
          ],
          "internalType": "struct StudentSocietyDAO.returnProposalStruct[]",
          "name": "",
          "type": "tuple[]"
        }
      ],
      "stateMutability": "view",
      "type": "function"
    },
    {
      "inputs": [],
      "name": "getVoteCost",
      "outputs": [
        {
          "internalType": "uint256",
          "name": "",
          "type": "uint256"
        }
      ],
      "stateMutability": "pure",
      "type": "function"
    },
    {
      "inputs": [
        {
          "internalType": "uint256",
          "name": "duration",
          "type": "uint256"
        },
        {
          "internalType": "string",
          "name": "name",
          "type": "string"
        },
        {
          "internalType": "string",
          "name": "description",
          "type": "string"
        }
      ],
      "name": "launchProposals",
      "outputs": [
        {
          "internalType": "bool",
          "name": "",
          "type": "bool"
        }
      ],
      "stateMutability": "nonpayable",
      "type": "function"
    },
    {
      "inputs": [],
      "name": "myERC20",
      "outputs": [
        {
          "internalType": "contract MyERC20",
          "name": "",
          "type": "address"
        }
      ],
      "stateMutability": "view",
      "type": "function"
    },
    {
      "inputs": [],
      "name": "myERC721",
      "outputs": [
        {
          "internalType": "contract MyERC721",
          "name": "",
          "type": "address"
        }
      ],
      "stateMutability": "view",
      "type": "function"
    },
    {
      "inputs": [],
      "name": "refreshAllProposals",
      "outputs": [],
      "stateMutability": "nonpayable",
      "type": "function"
    },
    {
      "inputs": [
        {
          "internalType": "uint256",
          "name": "a",
          "type": "uint256"
        },
        {
          "internalType": "uint256",
          "name": "b",
          "type": "uint256"
        }
      ],
      "name": "uncheckedAdd",
      "outputs": [
        {
          "internalType": "uint256",
          "name": "",
          "type": "uint256"
        }
      ],
      "stateMutability": "pure",
      "type": "function"
    },
    {
      "inputs": [
        {
          "internalType": "uint256",
          "name": "proposalID",
          "type": "uint256"
        }
      ],
      "name": "voteAgainst",
      "outputs": [
        {
          "internalType": "bool",
          "name": "",
          "type": "bool"
        }
      ],
      "stateMutability": "nonpayable",
      "type": "function"
    },
    {
      "inputs": [
        {
          "internalType": "uint256",
          "name": "proposalID",
          "type": "uint256"
        }
      ],
      "name": "voteFor",
      "outputs": [
        {
          "internalType": "bool",
          "name": "",
          "type": "bool"
        }
      ],
      "stateMutability": "nonpayable",
      "type": "function"
    }
  ],
  "bytecode": "0x60806040523480156200001157600080fd5b50604051620000209062000134565b6200002b9062000201565b604051809103906000f08015801562000048573d6000803e3d6000fd5b506000806101000a81548173ffffffffffffffffffffffffffffffffffffffff021916908373ffffffffffffffffffffffffffffffffffffffff160217905550604051620000969062000142565b604051809103906000f080158015620000b3573d6000803e3d6000fd5b50600160006101000a81548173ffffffffffffffffffffffffffffffffffffffff021916908373ffffffffffffffffffffffffffffffffffffffff1602179055507f28fcdc5daf66f7ab049f4073880cef5f52d55cfb74ee1ad511513daeea3199f9600160405162000126919062000295565b60405180910390a1620002b2565b6119908062002d3883390190565b61315c80620046c883390190565b600082825260208201905092915050565b7f5a4a55546f6b656e000000000000000000000000000000000000000000000000600082015250565b60006200019960088362000150565b9150620001a68262000161565b602082019050919050565b7f5a4a55546f6b656e53796d626f6c000000000000000000000000000000000000600082015250565b6000620001e9600e8362000150565b9150620001f682620001b1565b602082019050919050565b600060408201905081810360008301526200021c816200018a565b905081810360208301526200023181620001da565b9050919050565b6000819050919050565b600063ffffffff82169050919050565b6000819050919050565b60006200027d62000277620002718462000238565b62000252565b62000242565b9050919050565b6200028f816200025c565b82525050565b6000602082019050620002ac600083018462000284565b92915050565b612a7680620002c26000396000f3fe608060405234801561001057600080fd5b50600436106100cf5760003560e01c80637991502e1161008c578063b277f19911610066578063b277f19914610216578063b70d267014610246578063ddbbffd514610250578063ec399d981461026e576100cf565b80637991502e1461019857806386a50535146101c85780638f334e8d146101f8576100cf565b806312065fe0146100d4578063121adb2b146100f2578063163b4b051461010e57806348ef6c8c1461012c5780636d3739c41461014a578063750e443a14610168575b600080fd5b6100dc61029e565b6040516100e99190611e62565b60405180910390f35b61010c60048036038101906101079190612035565b61034f565b005b6101166103e2565b6040516101239190611e62565b60405180910390f35b6101346103ec565b6040516101419190611e62565b60405180910390f35b610152610433565b60405161015f91906120f0565b60405180910390f35b610182600480360381019061017d9190612137565b610457565b60405161018f919061217f565b60405180910390f35b6101b260048036038101906101ad919061219a565b6106c5565b6040516101bf9190612403565b60405180910390f35b6101e260048036038101906101dd9190612137565b610a8a565b6040516101ef919061217f565b60405180910390f35b610200610cf8565b60405161020d9190612446565b60405180910390f35b610230600480360381019061022b9190612461565b610d1e565b60405161023d9190611e62565b60405180910390f35b61024e610d2b565b005b610258610d5b565b604051610265919061257f565b60405180910390f35b610288600480360381019061028391906125a1565b610eeb565b604051610295919061217f565b60405180910390f35b60008060009054906101000a900473ffffffffffffffffffffffffffffffffffffffff1673ffffffffffffffffffffffffffffffffffffffff166370a08231336040518263ffffffff1660e01b81526004016102fa919061263b565b60206040518083038186803b15801561031257600080fd5b505afa158015610326573d6000803e3d6000fd5b505050506040513d601f19601f8201168201806040525081019061034a919061266b565b905090565b600160009054906101000a900473ffffffffffffffffffffffffffffffffffffffff1673ffffffffffffffffffffffffffffffffffffffff1663d0def52183836040518363ffffffff1660e01b81526004016103ac9291906126e2565b600060405180830381600087803b1580156103c657600080fd5b505af11580156103da573d6000803e3d6000fd5b505050505050565b60006101f4905090565b6000600260003373ffffffffffffffffffffffffffffffffffffffff1673ffffffffffffffffffffffffffffffffffffffff16815260200190815260200160002054905090565b60008054906101000a900473ffffffffffffffffffffffffffffffffffffffff1681565b6000806004838154811061046e5761046d612712565b5b906000526020600020906009020190507f31022d2cb99faf5c5acdee8d5c7ba2dae3e7109c747b227be10b2e9afef3337a3382600001546040516104b3929190612741565b60405180910390a16104c483611336565b801561052b57506003600084815260200190815260200160002060003373ffffffffffffffffffffffffffffffffffffffff1673ffffffffffffffffffffffffffffffffffffffff16815260200190815260200160002060009054906101000a900460ff16155b156106ba5760008054906101000a900473ffffffffffffffffffffffffffffffffffffffff1673ffffffffffffffffffffffffffffffffffffffff166323b872dd33306101f46040518463ffffffff1660e01b815260040161058f9392919061276a565b602060405180830381600087803b1580156105a957600080fd5b505af11580156105bd573d6000803e3d6000fd5b505050506040513d601f19601f820116820180604052508101906105e191906127cd565b5060016003600085815260200190815260200160002060003373ffffffffffffffffffffffffffffffffffffffff1673ffffffffffffffffffffffffffffffffffffffff16815260200190815260200160002060006101000a81548160ff02191690831515021790555080600701339080600181540180825580915050600190039060005260206000200160009091909190916101000a81548173ffffffffffffffffffffffffffffffffffffffff021916908373ffffffffffffffffffffffffffffffffffffffff16021790555060019150506106c0565b60009150505b919050565b6060600060048054905067ffffffffffffffff8111156106e8576106e7611f0a565b5b60405190808252806020026020018201604052801561072157816020015b61070e611c86565b8152602001906001900390816107065790505b50905060005b600480549050811015610a805761073c611c86565b600482815481106107505761074f612712565b5b9060005260206000209060090201600001548160000181815250506004828154811061077f5761077e612712565b5b906000526020600020906009020160010160009054906101000a900473ffffffffffffffffffffffffffffffffffffffff16816020019073ffffffffffffffffffffffffffffffffffffffff16908173ffffffffffffffffffffffffffffffffffffffff1681525050600482815481106107fc576107fb612712565b5b9060005260206000209060090201600201548160400181815250506004828154811061082b5761082a612712565b5b9060005260206000209060090201600301548160600181815250506004828154811061085a57610859612712565b5b906000526020600020906009020160050160009054906101000a900460ff168160800190151590811515815250506004828154811061089c5761089b612712565b5b9060005260206000209060090201600601805490508160a0018181525050600482815481106108ce576108cd612712565b5b9060005260206000209060090201600701805490508160c001818152505060048281548110610900576108ff612712565b5b9060005260206000209060090201600801805461091c90612829565b80601f016020809104026020016040519081016040528092919081815260200182805461094890612829565b80156109955780601f1061096a57610100808354040283529160200191610995565b820191906000526020600020905b81548152906001019060200180831161097857829003601f168201915b50505050508160e00181905250600482815481106109b6576109b5612712565b5b906000526020600020906009020160050160009054906101000a900460ff16158015610a3d57506003600083815260200190815260200160002060008673ffffffffffffffffffffffffffffffffffffffff1673ffffffffffffffffffffffffffffffffffffffff16815260200190815260200160002060009054906101000a900460ff16155b8161010001901515908115158152505080838381518110610a6157610a60612712565b5b6020026020010181905250508080610a789061288a565b915050610727565b5080915050919050565b60008060048381548110610aa157610aa0612712565b5b906000526020600020906009020190507f159656974a236976c80843986cdb32cc11f458ef33b91d5ec00d3c5d3fd02969338260000154604051610ae6929190612741565b60405180910390a1610af783611336565b8015610b5e57506003600084815260200190815260200160002060003373ffffffffffffffffffffffffffffffffffffffff1673ffffffffffffffffffffffffffffffffffffffff16815260200190815260200160002060009054906101000a900460ff16155b15610ced5760008054906101000a900473ffffffffffffffffffffffffffffffffffffffff1673ffffffffffffffffffffffffffffffffffffffff166323b872dd33306101f46040518463ffffffff1660e01b8152600401610bc29392919061276a565b602060405180830381600087803b158015610bdc57600080fd5b505af1158015610bf0573d6000803e3d6000fd5b505050506040513d601f19601f82011682018060405250810190610c1491906127cd565b5080600601339080600181540180825580915050600190039060005260206000200160009091909190916101000a81548173ffffffffffffffffffffffffffffffffffffffff021916908373ffffffffffffffffffffffffffffffffffffffff16021790555060016003600085815260200190815260200160002060003373ffffffffffffffffffffffffffffffffffffffff1673ffffffffffffffffffffffffffffffffffffffff16815260200190815260200160002060006101000a81548160ff0219169083151502179055506001915050610cf3565b60009150505b919050565b600160009054906101000a900473ffffffffffffffffffffffffffffffffffffffff1681565b6000818301905092915050565b60005b600480549050811015610d5857610d4481611336565b508080610d509061288a565b915050610d2e565b50565b6060600060048054905067ffffffffffffffff811115610d7e57610d7d611f0a565b5b604051908082528060200260200182016040528015610db757816020015b610da4611cec565b815260200190600190039081610d9c5790505b5090506000600480549050905060005b81811015610ee257600060048281548110610de557610de4612712565b5b906000526020600020906009020160010160009054906101000a900473ffffffffffffffffffffffffffffffffffffffff16905080848381518110610e2d57610e2c612712565b5b60200260200101516000019073ffffffffffffffffffffffffffffffffffffffff16908173ffffffffffffffffffffffffffffffffffffffff1681525050600260008273ffffffffffffffffffffffffffffffffffffffff1673ffffffffffffffffffffffffffffffffffffffff16815260200190815260200160002054848381518110610ebe57610ebd612712565b5b60200260200101516020018181525050508080610eda9061288a565b915050610dc7565b50819250505090565b600080600480549050905060046040518061012001604052808381526020013373ffffffffffffffffffffffffffffffffffffffff168152602001428152602001878152602001868152602001600015158152602001600067ffffffffffffffff811115610f5c57610f5b611f0a565b5b604051908082528060200260200182016040528015610f8a5781602001602082028036833780820191505090505b508152602001600067ffffffffffffffff811115610fab57610faa611f0a565b5b604051908082528060200260200182016040528015610fd95781602001602082028036833780820191505090505b5081526020018581525090806001815401808255809150506001900390600052602060002090600902016000909190919091506000820151816000015560208201518160010160006101000a81548173ffffffffffffffffffffffffffffffffffffffff021916908373ffffffffffffffffffffffffffffffffffffffff1602179055506040820151816002015560608201518160030155608082015181600401908051906020019061108d929190611d1c565b5060a08201518160050160006101000a81548160ff02191690831515021790555060c08201518160060190805190602001906110ca929190611da2565b5060e08201518160070190805190602001906110e7929190611da2565b50610100820151816008019080519060200190611105929190611d1c565b50505060006004828154811061111e5761111d612712565b5b906000526020600020906009020190507f159656974a236976c80843986cdb32cc11f458ef33b91d5ec00d3c5d3fd02969338260000154604051611163929190612741565b60405180910390a160008054906101000a900473ffffffffffffffffffffffffffffffffffffffff1673ffffffffffffffffffffffffffffffffffffffff166323b872dd33306101f46040518463ffffffff1660e01b81526004016111ca9392919061276a565b602060405180830381600087803b1580156111e457600080fd5b505af11580156111f8573d6000803e3d6000fd5b505050506040513d601f19601f8201168201806040525081019061121c91906127cd565b5080600601339080600181540180825580915050600190039060005260206000200160009091909190916101000a81548173ffffffffffffffffffffffffffffffffffffffff021916908373ffffffffffffffffffffffffffffffffffffffff16021790555060016003600084815260200190815260200160002060003373ffffffffffffffffffffffffffffffffffffffff1673ffffffffffffffffffffffffffffffffffffffff16815260200190815260200160002060006101000a81548160ff0219169083151502179055507f365b18c01d3d5fd48dc71215c4a5a21659ee078906c565cc36ce1058debdd971600480549050426040516113219291906128d3565b60405180910390a16001925050509392505050565b6000806004838154811061134d5761134c612712565b5b906000526020600020906009020160405180610120016040529081600082015481526020016001820160009054906101000a900473ffffffffffffffffffffffffffffffffffffffff1673ffffffffffffffffffffffffffffffffffffffff1673ffffffffffffffffffffffffffffffffffffffff16815260200160028201548152602001600382015481526020016004820180546113eb90612829565b80601f016020809104026020016040519081016040528092919081815260200182805461141790612829565b80156114645780601f1061143957610100808354040283529160200191611464565b820191906000526020600020905b81548152906001019060200180831161144757829003601f168201915b505050505081526020016005820160009054906101000a900460ff161515151581526020016006820180548060200260200160405190810160405280929190818152602001828054801561150d57602002820191906000526020600020905b8160009054906101000a900473ffffffffffffffffffffffffffffffffffffffff1673ffffffffffffffffffffffffffffffffffffffff16815260200190600101908083116114c3575b505050505081526020016007820180548060200260200160405190810160405280929190818152602001828054801561159b57602002820191906000526020600020905b8160009054906101000a900473ffffffffffffffffffffffffffffffffffffffff1673ffffffffffffffffffffffffffffffffffffffff1681526020019060010190808311611551575b505050505081526020016008820180546115b490612829565b80601f01602080910402602001604051908101604052809291908181526020018280546115e090612829565b801561162d5780601f106116025761010080835404028352916020019161162d565b820191906000526020600020905b81548152906001019060200180831161161057829003601f168201915b50505050508152505090504261164b82604001518360600151610d1e565b11611c7b57600015158160a0015115151415611c715760008160c0015151905060008260e001515190506000818361168391906128fc565b905081831115611a295760006002826101f461169f9190612952565b6116a991906129db565b90506000816101f4846116bc9190612952565b6116c69190612a0c565b9050600085826116d691906129db565b9050600086826116e69190612952565b836116f19190612a0c565b905060008054906101000a900473ffffffffffffffffffffffffffffffffffffffff1673ffffffffffffffffffffffffffffffffffffffff1663a9059cbb8960200151866040518363ffffffff1660e01b8152600401611752929190612741565b602060405180830381600087803b15801561176c57600080fd5b505af1158015611780573d6000803e3d6000fd5b505050506040513d601f19601f820116820180604052508101906117a491906127cd565b5060005b8781101561188f5760008054906101000a900473ffffffffffffffffffffffffffffffffffffffff1673ffffffffffffffffffffffffffffffffffffffff1663a9059cbb8a60c00151838151811061180357611802612712565b5b6020026020010151856040518363ffffffff1660e01b8152600401611829929190612741565b602060405180830381600087803b15801561184357600080fd5b505af1158015611857573d6000803e3d6000fd5b505050506040513d601f19601f8201168201806040525081019061187b91906127cd565b5080806118879061288a565b9150506117a8565b5060008054906101000a900473ffffffffffffffffffffffffffffffffffffffff1673ffffffffffffffffffffffffffffffffffffffff1663a9059cbb8960200151836040518363ffffffff1660e01b81526004016118ef929190612741565b602060405180830381600087803b15801561190957600080fd5b505af115801561191d573d6000803e3d6000fd5b505050506040513d601f19601f8201168201806040525081019061194191906127cd565b506001600260008a6020015173ffffffffffffffffffffffffffffffffffffffff1673ffffffffffffffffffffffffffffffffffffffff1681526020019081526020016000205461199291906128fc565b600260008a6020015173ffffffffffffffffffffffffffffffffffffffff1673ffffffffffffffffffffffffffffffffffffffff168152602001908152602001600020819055506003600260008a6020015173ffffffffffffffffffffffffffffffffffffffff1673ffffffffffffffffffffffffffffffffffffffff168152602001908152602001600020505050505050611c29565b6000826101f483611a3a9190612952565b611a4491906129db565b905060008382611a549190612952565b6101f484611a629190612952565b611a6c9190612a0c565b905060005b84811015611b585760008054906101000a900473ffffffffffffffffffffffffffffffffffffffff1673ffffffffffffffffffffffffffffffffffffffff1663a9059cbb8860e001518381518110611acc57611acb612712565b5b6020026020010151856040518363ffffffff1660e01b8152600401611af2929190612741565b602060405180830381600087803b158015611b0c57600080fd5b505af1158015611b20573d6000803e3d6000fd5b505050506040513d601f19601f82011682018060405250810190611b4491906127cd565b508080611b509061288a565b915050611a71565b5060008054906101000a900473ffffffffffffffffffffffffffffffffffffffff1673ffffffffffffffffffffffffffffffffffffffff1663a9059cbb8760e00151600081518110611bad57611bac612712565b5b6020026020010151836040518363ffffffff1660e01b8152600401611bd3929190612741565b602060405180830381600087803b158015611bed57600080fd5b505af1158015611c01573d6000803e3d6000fd5b505050506040513d601f19601f82011682018060405250810190611c2591906127cd565b5050505b600060048781548110611c3f57611c3e612712565b5b9060005260206000209060090201905060018160050160006101000a81548160ff021916908315150217905550505050505b6000915050611c81565b60019150505b919050565b60405180610120016040528060008152602001600073ffffffffffffffffffffffffffffffffffffffff16815260200160008152602001600081526020016000151581526020016000815260200160008152602001606081526020016000151581525090565b6040518060400160405280600073ffffffffffffffffffffffffffffffffffffffff168152602001600081525090565b828054611d2890612829565b90600052602060002090601f016020900481019282611d4a5760008555611d91565b82601f10611d6357805160ff1916838001178555611d91565b82800160010185558215611d91579182015b82811115611d90578251825591602001919060010190611d75565b5b509050611d9e9190611e2c565b5090565b828054828255906000526020600020908101928215611e1b579160200282015b82811115611e1a5782518260006101000a81548173ffffffffffffffffffffffffffffffffffffffff021916908373ffffffffffffffffffffffffffffffffffffffff16021790555091602001919060010190611dc2565b5b509050611e289190611e2c565b5090565b5b80821115611e45576000816000905550600101611e2d565b5090565b6000819050919050565b611e5c81611e49565b82525050565b6000602082019050611e776000830184611e53565b92915050565b6000604051905090565b600080fd5b600080fd5b600073ffffffffffffffffffffffffffffffffffffffff82169050919050565b6000611ebc82611e91565b9050919050565b611ecc81611eb1565b8114611ed757600080fd5b50565b600081359050611ee981611ec3565b92915050565b600080fd5b600080fd5b6000601f19601f8301169050919050565b7f4e487b7100000000000000000000000000000000000000000000000000000000600052604160045260246000fd5b611f4282611ef9565b810181811067ffffffffffffffff82111715611f6157611f60611f0a565b5b80604052505050565b6000611f74611e7d565b9050611f808282611f39565b919050565b600067ffffffffffffffff821115611fa057611f9f611f0a565b5b611fa982611ef9565b9050602081019050919050565b82818337600083830152505050565b6000611fd8611fd384611f85565b611f6a565b905082815260208101848484011115611ff457611ff3611ef4565b5b611fff848285611fb6565b509392505050565b600082601f83011261201c5761201b611eef565b5b813561202c848260208601611fc5565b91505092915050565b6000806040838503121561204c5761204b611e87565b5b600061205a85828601611eda565b925050602083013567ffffffffffffffff81111561207b5761207a611e8c565b5b61208785828601612007565b9150509250929050565b6000819050919050565b60006120b66120b16120ac84611e91565b612091565b611e91565b9050919050565b60006120c88261209b565b9050919050565b60006120da826120bd565b9050919050565b6120ea816120cf565b82525050565b600060208201905061210560008301846120e1565b92915050565b61211481611e49565b811461211f57600080fd5b50565b6000813590506121318161210b565b92915050565b60006020828403121561214d5761214c611e87565b5b600061215b84828501612122565b91505092915050565b60008115159050919050565b61217981612164565b82525050565b60006020820190506121946000830184612170565b92915050565b6000602082840312156121b0576121af611e87565b5b60006121be84828501611eda565b91505092915050565b600081519050919050565b600082825260208201905092915050565b6000819050602082019050919050565b6121fc81611e49565b82525050565b61220b81611eb1565b82525050565b61221a81612164565b82525050565b600081519050919050565b600082825260208201905092915050565b60005b8381101561225a57808201518184015260208101905061223f565b83811115612269576000848401525b50505050565b600061227a82612220565b612284818561222b565b935061229481856020860161223c565b61229d81611ef9565b840191505092915050565b6000610120830160008301516122c160008601826121f3565b5060208301516122d46020860182612202565b5060408301516122e760408601826121f3565b5060608301516122fa60608601826121f3565b50608083015161230d6080860182612211565b5060a083015161232060a08601826121f3565b5060c083015161233360c08601826121f3565b5060e083015184820360e086015261234b828261226f565b915050610100830151612362610100860182612211565b508091505092915050565b600061237983836122a8565b905092915050565b6000602082019050919050565b6000612399826121c7565b6123a381856121d2565b9350836020820285016123b5856121e3565b8060005b858110156123f157848403895281516123d2858261236d565b94506123dd83612381565b925060208a019950506001810190506123b9565b50829750879550505050505092915050565b6000602082019050818103600083015261241d818461238e565b905092915050565b6000612430826120bd565b9050919050565b61244081612425565b82525050565b600060208201905061245b6000830184612437565b92915050565b6000806040838503121561247857612477611e87565b5b600061248685828601612122565b925050602061249785828601612122565b9150509250929050565b600081519050919050565b600082825260208201905092915050565b6000819050602082019050919050565b6040820160008201516124e36000850182612202565b5060208201516124f660208501826121f3565b50505050565b600061250883836124cd565b60408301905092915050565b6000602082019050919050565b600061252c826124a1565b61253681856124ac565b9350612541836124bd565b8060005b8381101561257257815161255988826124fc565b975061256483612514565b925050600181019050612545565b5085935050505092915050565b600060208201905081810360008301526125998184612521565b905092915050565b6000806000606084860312156125ba576125b9611e87565b5b60006125c886828701612122565b935050602084013567ffffffffffffffff8111156125e9576125e8611e8c565b5b6125f586828701612007565b925050604084013567ffffffffffffffff81111561261657612615611e8c565b5b61262286828701612007565b9150509250925092565b61263581611eb1565b82525050565b6000602082019050612650600083018461262c565b92915050565b6000815190506126658161210b565b92915050565b60006020828403121561268157612680611e87565b5b600061268f84828501612656565b91505092915050565b600082825260208201905092915050565b60006126b482612220565b6126be8185612698565b93506126ce81856020860161223c565b6126d781611ef9565b840191505092915050565b60006040820190506126f7600083018561262c565b818103602083015261270981846126a9565b90509392505050565b7f4e487b7100000000000000000000000000000000000000000000000000000000600052603260045260246000fd5b6000604082019050612756600083018561262c565b6127636020830184611e53565b9392505050565b600060608201905061277f600083018661262c565b61278c602083018561262c565b6127996040830184611e53565b949350505050565b6127aa81612164565b81146127b557600080fd5b50565b6000815190506127c7816127a1565b92915050565b6000602082840312156127e3576127e2611e87565b5b60006127f1848285016127b8565b91505092915050565b7f4e487b7100000000000000000000000000000000000000000000000000000000600052602260045260246000fd5b6000600282049050600182168061284157607f821691505b60208210811415612855576128546127fa565b5b50919050565b7f4e487b7100000000000000000000000000000000000000000000000000000000600052601160045260246000fd5b600061289582611e49565b91507fffffffffffffffffffffffffffffffffffffffffffffffffffffffffffffffff8214156128c8576128c761285b565b5b600182019050919050565b60006040820190506128e86000830185611e53565b6128f56020830184611e53565b9392505050565b600061290782611e49565b915061291283611e49565b9250827fffffffffffffffffffffffffffffffffffffffffffffffffffffffffffffffff038211156129475761294661285b565b5b828201905092915050565b600061295d82611e49565b915061296883611e49565b9250817fffffffffffffffffffffffffffffffffffffffffffffffffffffffffffffffff04831182151516156129a1576129a061285b565b5b828202905092915050565b7f4e487b7100000000000000000000000000000000000000000000000000000000600052601260045260246000fd5b60006129e682611e49565b91506129f183611e49565b925082612a0157612a006129ac565b5b828204905092915050565b6000612a1782611e49565b9150612a2283611e49565b925082821015612a3557612a3461285b565b5b82820390509291505056fea2646970667358221220a8fe152248c44f7d429d954cdb5d7997b5d20fa6c865f61912927e05f648f2e864736f6c6343000809003360806040523480156200001157600080fd5b5060405162001990380380620019908339818101604052810190620000379190620002c2565b818181600390805190602001906200005192919062000075565b5080600490805190602001906200006a92919062000075565b5050505050620003ac565b828054620000839062000376565b90600052602060002090601f016020900481019282620000a75760008555620000f3565b82601f10620000c257805160ff1916838001178555620000f3565b82800160010185558215620000f3579182015b82811115620000f2578251825591602001919060010190620000d5565b5b50905062000102919062000106565b5090565b5b808211156200012157600081600090555060010162000107565b5090565b6000604051905090565b600080fd5b600080fd5b600080fd5b600080fd5b6000601f19601f8301169050919050565b7f4e487b7100000000000000000000000000000000000000000000000000000000600052604160045260246000fd5b6200018e8262000143565b810181811067ffffffffffffffff82111715620001b057620001af62000154565b5b80604052505050565b6000620001c562000125565b9050620001d3828262000183565b919050565b600067ffffffffffffffff821115620001f657620001f562000154565b5b620002018262000143565b9050602081019050919050565b60005b838110156200022e57808201518184015260208101905062000211565b838111156200023e576000848401525b50505050565b60006200025b6200025584620001d8565b620001b9565b9050828152602081018484840111156200027a57620002796200013e565b5b620002878482856200020e565b509392505050565b600082601f830112620002a757620002a662000139565b5b8151620002b984826020860162000244565b91505092915050565b60008060408385031215620002dc57620002db6200012f565b5b600083015167ffffffffffffffff811115620002fd57620002fc62000134565b5b6200030b858286016200028f565b925050602083015167ffffffffffffffff8111156200032f576200032e62000134565b5b6200033d858286016200028f565b9150509250929050565b7f4e487b7100000000000000000000000000000000000000000000000000000000600052602260045260246000fd5b600060028204905060018216806200038f57607f821691505b60208210811415620003a657620003a562000347565b5b50919050565b6115d480620003bc6000396000f3fe608060405234801561001057600080fd5b50600436106100b45760003560e01c80633950935111610071578063395093511461017d57806370a08231146101ad57806395d89b41146101dd578063a457c2d7146101fb578063a9059cbb1461022b578063dd62ed3e1461025b576100b4565b806306fdde03146100b9578063095ea7b3146100d757806318160ddd1461010757806323b872dd14610125578063313ce567146101555780633884d63514610173575b600080fd5b6100c161028b565b6040516100ce9190610d90565b60405180910390f35b6100f160048036038101906100ec9190610e4b565b61031d565b6040516100fe9190610ea6565b60405180910390f35b61010f610340565b60405161011c9190610ed0565b60405180910390f35b61013f600480360381019061013a9190610eeb565b61034a565b60405161014c9190610ea6565b60405180910390f35b61015d610379565b60405161016a9190610f5a565b60405180910390f35b61017b610382565b005b61019760048036038101906101929190610e4b565b61047b565b6040516101a49190610ea6565b60405180910390f35b6101c760048036038101906101c29190610f75565b6104b2565b6040516101d49190610ed0565b60405180910390f35b6101e56104fa565b6040516101f29190610d90565b60405180910390f35b61021560048036038101906102109190610e4b565b61058c565b6040516102229190610ea6565b60405180910390f35b61024560048036038101906102409190610e4b565b610603565b6040516102529190610ea6565b60405180910390f35b61027560048036038101906102709190610fa2565b610626565b6040516102829190610ed0565b60405180910390f35b60606003805461029a90611011565b80601f01602080910402602001604051908101604052809291908181526020018280546102c690611011565b80156103135780601f106102e857610100808354040283529160200191610313565b820191906000526020600020905b8154815290600101906020018083116102f657829003601f168201915b5050505050905090565b6000806103286106ad565b90506103358185856106b5565b600191505092915050565b6000600254905090565b6000806103556106ad565b9050610362858285610880565b61036d85858561090c565b60019150509392505050565b60006012905090565b60001515600560003373ffffffffffffffffffffffffffffffffffffffff1673ffffffffffffffffffffffffffffffffffffffff16815260200190815260200160002060009054906101000a900460ff16151514610415576040517f08c379a000000000000000000000000000000000000000000000000000000000815260040161040c906110b5565b60405180910390fd5b61042133612710610b8d565b6001600560003373ffffffffffffffffffffffffffffffffffffffff1673ffffffffffffffffffffffffffffffffffffffff16815260200190815260200160002060006101000a81548160ff021916908315150217905550565b6000806104866106ad565b90506104a78185856104988589610626565b6104a29190611104565b6106b5565b600191505092915050565b60008060008373ffffffffffffffffffffffffffffffffffffffff1673ffffffffffffffffffffffffffffffffffffffff168152602001908152602001600020549050919050565b60606004805461050990611011565b80601f016020809104026020016040519081016040528092919081815260200182805461053590611011565b80156105825780601f1061055757610100808354040283529160200191610582565b820191906000526020600020905b81548152906001019060200180831161056557829003601f168201915b5050505050905090565b6000806105976106ad565b905060006105a58286610626565b9050838110156105ea576040517f08c379a00000000000000000000000000000000000000000000000000000000081526004016105e1906111cc565b60405180910390fd5b6105f782868684036106b5565b60019250505092915050565b60008061060e6106ad565b905061061b81858561090c565b600191505092915050565b6000600160008473ffffffffffffffffffffffffffffffffffffffff1673ffffffffffffffffffffffffffffffffffffffff16815260200190815260200160002060008373ffffffffffffffffffffffffffffffffffffffff1673ffffffffffffffffffffffffffffffffffffffff16815260200190815260200160002054905092915050565b600033905090565b600073ffffffffffffffffffffffffffffffffffffffff168373ffffffffffffffffffffffffffffffffffffffff161415610725576040517f08c379a000000000000000000000000000000000000000000000000000000000815260040161071c9061125e565b60405180910390fd5b600073ffffffffffffffffffffffffffffffffffffffff168273ffffffffffffffffffffffffffffffffffffffff161415610795576040517f08c379a000000000000000000000000000000000000000000000000000000000815260040161078c906112f0565b60405180910390fd5b80600160008573ffffffffffffffffffffffffffffffffffffffff1673ffffffffffffffffffffffffffffffffffffffff16815260200190815260200160002060008473ffffffffffffffffffffffffffffffffffffffff1673ffffffffffffffffffffffffffffffffffffffff168152602001908152602001600020819055508173ffffffffffffffffffffffffffffffffffffffff168373ffffffffffffffffffffffffffffffffffffffff167f8c5be1e5ebec7d5bd14f71427d1e84f3dd0314c0f7b2291e5b200ac8c7c3b925836040516108739190610ed0565b60405180910390a3505050565b600061088c8484610626565b90507fffffffffffffffffffffffffffffffffffffffffffffffffffffffffffffffff811461090657818110156108f8576040517f08c379a00000000000000000000000000000000000000000000000000000000081526004016108ef9061135c565b60405180910390fd5b61090584848484036106b5565b5b50505050565b600073ffffffffffffffffffffffffffffffffffffffff168373ffffffffffffffffffffffffffffffffffffffff16141561097c576040517f08c379a0000000000000000000000000000000000000000000000000000000008152600401610973906113ee565b60405180910390fd5b600073ffffffffffffffffffffffffffffffffffffffff168273ffffffffffffffffffffffffffffffffffffffff1614156109ec576040517f08c379a00000000000000000000000000000000000000000000000000000000081526004016109e390611480565b60405180910390fd5b6109f7838383610ced565b60008060008573ffffffffffffffffffffffffffffffffffffffff1673ffffffffffffffffffffffffffffffffffffffff16815260200190815260200160002054905081811015610a7d576040517f08c379a0000000000000000000000000000000000000000000000000000000008152600401610a7490611512565b60405180910390fd5b8181036000808673ffffffffffffffffffffffffffffffffffffffff1673ffffffffffffffffffffffffffffffffffffffff16815260200190815260200160002081905550816000808573ffffffffffffffffffffffffffffffffffffffff1673ffffffffffffffffffffffffffffffffffffffff1681526020019081526020016000206000828254610b109190611104565b925050819055508273ffffffffffffffffffffffffffffffffffffffff168473ffffffffffffffffffffffffffffffffffffffff167fddf252ad1be2c89b69c2b068fc378daa952ba7f163c4a11628f55a4df523b3ef84604051610b749190610ed0565b60405180910390a3610b87848484610cf2565b50505050565b600073ffffffffffffffffffffffffffffffffffffffff168273ffffffffffffffffffffffffffffffffffffffff161415610bfd576040517f08c379a0000000000000000000000000000000000000000000000000000000008152600401610bf49061157e565b60405180910390fd5b610c0960008383610ced565b8060026000828254610c1b9190611104565b92505081905550806000808473ffffffffffffffffffffffffffffffffffffffff1673ffffffffffffffffffffffffffffffffffffffff1681526020019081526020016000206000828254610c709190611104565b925050819055508173ffffffffffffffffffffffffffffffffffffffff16600073ffffffffffffffffffffffffffffffffffffffff167fddf252ad1be2c89b69c2b068fc378daa952ba7f163c4a11628f55a4df523b3ef83604051610cd59190610ed0565b60405180910390a3610ce960008383610cf2565b5050565b505050565b505050565b600081519050919050565b600082825260208201905092915050565b60005b83811015610d31578082015181840152602081019050610d16565b83811115610d40576000848401525b50505050565b6000601f19601f8301169050919050565b6000610d6282610cf7565b610d6c8185610d02565b9350610d7c818560208601610d13565b610d8581610d46565b840191505092915050565b60006020820190508181036000830152610daa8184610d57565b905092915050565b600080fd5b600073ffffffffffffffffffffffffffffffffffffffff82169050919050565b6000610de282610db7565b9050919050565b610df281610dd7565b8114610dfd57600080fd5b50565b600081359050610e0f81610de9565b92915050565b6000819050919050565b610e2881610e15565b8114610e3357600080fd5b50565b600081359050610e4581610e1f565b92915050565b60008060408385031215610e6257610e61610db2565b5b6000610e7085828601610e00565b9250506020610e8185828601610e36565b9150509250929050565b60008115159050919050565b610ea081610e8b565b82525050565b6000602082019050610ebb6000830184610e97565b92915050565b610eca81610e15565b82525050565b6000602082019050610ee56000830184610ec1565b92915050565b600080600060608486031215610f0457610f03610db2565b5b6000610f1286828701610e00565b9350506020610f2386828701610e00565b9250506040610f3486828701610e36565b9150509250925092565b600060ff82169050919050565b610f5481610f3e565b82525050565b6000602082019050610f6f6000830184610f4b565b92915050565b600060208284031215610f8b57610f8a610db2565b5b6000610f9984828501610e00565b91505092915050565b60008060408385031215610fb957610fb8610db2565b5b6000610fc785828601610e00565b9250506020610fd885828601610e00565b9150509250929050565b7f4e487b7100000000000000000000000000000000000000000000000000000000600052602260045260246000fd5b6000600282049050600182168061102957607f821691505b6020821081141561103d5761103c610fe2565b5b50919050565b7f5468697320757365722068617320636c61696d65642061697264726f7020616c60008201527f7265616479000000000000000000000000000000000000000000000000000000602082015250565b600061109f602583610d02565b91506110aa82611043565b604082019050919050565b600060208201905081810360008301526110ce81611092565b9050919050565b7f4e487b7100000000000000000000000000000000000000000000000000000000600052601160045260246000fd5b600061110f82610e15565b915061111a83610e15565b9250827fffffffffffffffffffffffffffffffffffffffffffffffffffffffffffffffff0382111561114f5761114e6110d5565b5b828201905092915050565b7f45524332303a2064656372656173656420616c6c6f77616e63652062656c6f7760008201527f207a65726f000000000000000000000000000000000000000000000000000000602082015250565b60006111b6602583610d02565b91506111c18261115a565b604082019050919050565b600060208201905081810360008301526111e5816111a9565b9050919050565b7f45524332303a20617070726f76652066726f6d20746865207a65726f2061646460008201527f7265737300000000000000000000000000000000000000000000000000000000602082015250565b6000611248602483610d02565b9150611253826111ec565b604082019050919050565b600060208201905081810360008301526112778161123b565b9050919050565b7f45524332303a20617070726f766520746f20746865207a65726f20616464726560008201527f7373000000000000000000000000000000000000000000000000000000000000602082015250565b60006112da602283610d02565b91506112e58261127e565b604082019050919050565b60006020820190508181036000830152611309816112cd565b9050919050565b7f45524332303a20696e73756666696369656e7420616c6c6f77616e6365000000600082015250565b6000611346601d83610d02565b915061135182611310565b602082019050919050565b6000602082019050818103600083015261137581611339565b9050919050565b7f45524332303a207472616e736665722066726f6d20746865207a65726f20616460008201527f6472657373000000000000000000000000000000000000000000000000000000602082015250565b60006113d8602583610d02565b91506113e38261137c565b604082019050919050565b60006020820190508181036000830152611407816113cb565b9050919050565b7f45524332303a207472616e7366657220746f20746865207a65726f206164647260008201527f6573730000000000000000000000000000000000000000000000000000000000602082015250565b600061146a602383610d02565b91506114758261140e565b604082019050919050565b600060208201905081810360008301526114998161145d565b9050919050565b7f45524332303a207472616e7366657220616d6f756e742065786365656473206260008201527f616c616e63650000000000000000000000000000000000000000000000000000602082015250565b60006114fc602683610d02565b9150611507826114a0565b604082019050919050565b6000602082019050818103600083015261152b816114ef565b9050919050565b7f45524332303a206d696e7420746f20746865207a65726f206164647265737300600082015250565b6000611568601f83610d02565b915061157382611532565b602082019050919050565b600060208201905081810360008301526115978161155b565b905091905056fea264697066735822122093663959b3d157dfb6b65495480f46fd0509f1e48f85c767fd6dabe3ba324ed964736f6c6343000809003360806040523480156200001157600080fd5b506040518060400160405280600881526020017f47616d654974656d0000000000000000000000000000000000000000000000008152506040518060400160405280600381526020017f49544d0000000000000000000000000000000000000000000000000000000000815250816000908051906020019062000096929190620001a6565b508060019080519060200190620000af929190620001a6565b505050620000d2620000c6620000d860201b60201c565b620000e060201b60201c565b620002bb565b600033905090565b6000600660009054906101000a900473ffffffffffffffffffffffffffffffffffffffff16905081600660006101000a81548173ffffffffffffffffffffffffffffffffffffffff021916908373ffffffffffffffffffffffffffffffffffffffff1602179055508173ffffffffffffffffffffffffffffffffffffffff168173ffffffffffffffffffffffffffffffffffffffff167f8be0079c531659141344cd1fd0a4f28419497f9722a3daafe3b4186f6b6457e060405160405180910390a35050565b828054620001b49062000285565b90600052602060002090601f016020900481019282620001d8576000855562000224565b82601f10620001f357805160ff191683800117855562000224565b8280016001018555821562000224579182015b828111156200022357825182559160200191906001019062000206565b5b50905062000233919062000237565b5090565b5b808211156200025257600081600090555060010162000238565b5090565b7f4e487b7100000000000000000000000000000000000000000000000000000000600052602260045260246000fd5b600060028204905060018216806200029e57607f821691505b60208210811415620002b557620002b462000256565b5b50919050565b612e9180620002cb6000396000f3fe608060405234801561001057600080fd5b50600436106101165760003560e01c80638da5cb5b116100a2578063b88d4fde11610071578063b88d4fde146102cd578063c87b56dd146102e9578063d0def52114610319578063e985e9c514610335578063f2fde38b1461036557610116565b80638da5cb5b1461025757806395d89b411461027557806397a4c6de14610293578063a22cb465146102b157610116565b806323b872dd116100e957806323b872dd146101b557806342842e0e146101d15780636352211e146101ed57806370a082311461021d578063715018a61461024d57610116565b806301ffc9a71461011b57806306fdde031461014b578063081812fc14610169578063095ea7b314610199575b600080fd5b61013560048036038101906101309190611c59565b610381565b6040516101429190611ca1565b60405180910390f35b610153610463565b6040516101609190611d55565b60405180910390f35b610183600480360381019061017e9190611dad565b6104f5565b6040516101909190611e1b565b60405180910390f35b6101b360048036038101906101ae9190611e62565b61053b565b005b6101cf60048036038101906101ca9190611ea2565b610653565b005b6101eb60048036038101906101e69190611ea2565b6106b3565b005b61020760048036038101906102029190611dad565b6106d3565b6040516102149190611e1b565b60405180910390f35b61023760048036038101906102329190611ef5565b610785565b6040516102449190611f31565b60405180910390f35b61025561083d565b005b61025f610851565b60405161026c9190611e1b565b60405180910390f35b61027d61087b565b60405161028a9190611d55565b60405180910390f35b61029b61090d565b6040516102a891906120c6565b60405180910390f35b6102cb60048036038101906102c69190612114565b610b2d565b005b6102e760048036038101906102e29190612289565b610b43565b005b61030360048036038101906102fe9190611dad565b610ba5565b6040516103109190611d55565b60405180910390f35b610333600480360381019061032e91906123ad565b610c0d565b005b61034f600480360381019061034a9190612409565b610c98565b60405161035c9190611ca1565b60405180910390f35b61037f600480360381019061037a9190611ef5565b610d2c565b005b60007f80ac58cd000000000000000000000000000000000000000000000000000000007bffffffffffffffffffffffffffffffffffffffffffffffffffffffff1916827bffffffffffffffffffffffffffffffffffffffffffffffffffffffff1916148061044c57507f5b5e139f000000000000000000000000000000000000000000000000000000007bffffffffffffffffffffffffffffffffffffffffffffffffffffffff1916827bffffffffffffffffffffffffffffffffffffffffffffffffffffffff1916145b8061045c575061045b82610db0565b5b9050919050565b60606000805461047290612478565b80601f016020809104026020016040519081016040528092919081815260200182805461049e90612478565b80156104eb5780601f106104c0576101008083540402835291602001916104eb565b820191906000526020600020905b8154815290600101906020018083116104ce57829003601f168201915b5050505050905090565b600061050082610e1a565b6004600083815260200190815260200160002060009054906101000a900473ffffffffffffffffffffffffffffffffffffffff169050919050565b6000610546826106d3565b90508073ffffffffffffffffffffffffffffffffffffffff168373ffffffffffffffffffffffffffffffffffffffff1614156105b7576040517f08c379a00000000000000000000000000000000000000000000000000000000081526004016105ae9061251c565b60405180910390fd5b8073ffffffffffffffffffffffffffffffffffffffff166105d6610e65565b73ffffffffffffffffffffffffffffffffffffffff1614806106055750610604816105ff610e65565b610c98565b5b610644576040517f08c379a000000000000000000000000000000000000000000000000000000000815260040161063b906125ae565b60405180910390fd5b61064e8383610e6d565b505050565b61066461065e610e65565b82610f26565b6106a3576040517f08c379a000000000000000000000000000000000000000000000000000000000815260040161069a90612640565b60405180910390fd5b6106ae838383610fbb565b505050565b6106ce83838360405180602001604052806000815250610b43565b505050565b6000806002600084815260200190815260200160002060009054906101000a900473ffffffffffffffffffffffffffffffffffffffff169050600073ffffffffffffffffffffffffffffffffffffffff168173ffffffffffffffffffffffffffffffffffffffff16141561077c576040517f08c379a0000000000000000000000000000000000000000000000000000000008152600401610773906126ac565b60405180910390fd5b80915050919050565b60008073ffffffffffffffffffffffffffffffffffffffff168273ffffffffffffffffffffffffffffffffffffffff1614156107f6576040517f08c379a00000000000000000000000000000000000000000000000000000000081526004016107ed9061273e565b60405180910390fd5b600360008373ffffffffffffffffffffffffffffffffffffffff1673ffffffffffffffffffffffffffffffffffffffff168152602001908152602001600020549050919050565b610845611222565b61084f60006112a0565b565b6000600660009054906101000a900473ffffffffffffffffffffffffffffffffffffffff16905090565b60606001805461088a90612478565b80601f01602080910402602001604051908101604052809291908181526020018280546108b690612478565b80156109035780601f106108d857610100808354040283529160200191610903565b820191906000526020600020905b8154815290600101906020018083116108e657829003601f168201915b5050505050905090565b6060600061091b6007611366565b67ffffffffffffffff8111156109345761093361215e565b5b60405190808252806020026020018201604052801561096d57816020015b61095a611b13565b8152602001906001900390816109525790505b5090506000600190505b6109816007611366565b8111610b25578082600183610996919061278d565b815181106109a7576109a66127c1565b5b602002602001015160000181815250506009600082815260200190815260200160002060009054906101000a900473ffffffffffffffffffffffffffffffffffffffff16826001836109f9919061278d565b81518110610a0a57610a096127c1565b5b60200260200101516020019073ffffffffffffffffffffffffffffffffffffffff16908173ffffffffffffffffffffffffffffffffffffffff1681525050600860008281526020019081526020016000208054610a6690612478565b80601f0160208091040260200160405190810160405280929190818152602001828054610a9290612478565b8015610adf5780601f10610ab457610100808354040283529160200191610adf565b820191906000526020600020905b815481529060010190602001808311610ac257829003601f168201915b505050505082600183610af2919061278d565b81518110610b0357610b026127c1565b5b6020026020010151604001819052508080610b1d906127f0565b915050610977565b508091505090565b610b3f610b38610e65565b8383611374565b5050565b610b54610b4e610e65565b83610f26565b610b93576040517f08c379a0000000000000000000000000000000000000000000000000000000008152600401610b8a90612640565b60405180910390fd5b610b9f848484846114e1565b50505050565b6060610bb082610e1a565b6000610bba61153d565b90506000815111610bda5760405180602001604052806000815250610c05565b80610be484611554565b604051602001610bf5929190612875565b6040516020818303038152906040525b915050919050565b610c15611222565b610c1f60076116b5565b6000610c2b6007611366565b9050610c3783826116cb565b610c4181836118a5565b826009600083815260200190815260200160002060006101000a81548173ffffffffffffffffffffffffffffffffffffffff021916908373ffffffffffffffffffffffffffffffffffffffff160217905550505050565b6000600560008473ffffffffffffffffffffffffffffffffffffffff1673ffffffffffffffffffffffffffffffffffffffff16815260200190815260200160002060008373ffffffffffffffffffffffffffffffffffffffff1673ffffffffffffffffffffffffffffffffffffffff16815260200190815260200160002060009054906101000a900460ff16905092915050565b610d34611222565b600073ffffffffffffffffffffffffffffffffffffffff168173ffffffffffffffffffffffffffffffffffffffff161415610da4576040517f08c379a0000000000000000000000000000000000000000000000000000000008152600401610d9b9061290b565b60405180910390fd5b610dad816112a0565b50565b60007f01ffc9a7000000000000000000000000000000000000000000000000000000007bffffffffffffffffffffffffffffffffffffffffffffffffffffffff1916827bffffffffffffffffffffffffffffffffffffffffffffffffffffffff1916149050919050565b610e23816118e3565b610e62576040517f08c379a0000000000000000000000000000000000000000000000000000000008152600401610e59906126ac565b60405180910390fd5b50565b600033905090565b816004600083815260200190815260200160002060006101000a81548173ffffffffffffffffffffffffffffffffffffffff021916908373ffffffffffffffffffffffffffffffffffffffff160217905550808273ffffffffffffffffffffffffffffffffffffffff16610ee0836106d3565b73ffffffffffffffffffffffffffffffffffffffff167f8c5be1e5ebec7d5bd14f71427d1e84f3dd0314c0f7b2291e5b200ac8c7c3b92560405160405180910390a45050565b600080610f32836106d3565b90508073ffffffffffffffffffffffffffffffffffffffff168473ffffffffffffffffffffffffffffffffffffffff161480610f745750610f738185610c98565b5b80610fb257508373ffffffffffffffffffffffffffffffffffffffff16610f9a846104f5565b73ffffffffffffffffffffffffffffffffffffffff16145b91505092915050565b8273ffffffffffffffffffffffffffffffffffffffff16610fdb826106d3565b73ffffffffffffffffffffffffffffffffffffffff1614611031576040517f08c379a00000000000000000000000000000000000000000000000000000000081526004016110289061299d565b60405180910390fd5b600073ffffffffffffffffffffffffffffffffffffffff168273ffffffffffffffffffffffffffffffffffffffff1614156110a1576040517f08c379a000000000000000000000000000000000000000000000000000000000815260040161109890612a2f565b60405180910390fd5b6110ac83838361194f565b6110b7600082610e6d565b6001600360008573ffffffffffffffffffffffffffffffffffffffff1673ffffffffffffffffffffffffffffffffffffffff1681526020019081526020016000206000828254611107919061278d565b925050819055506001600360008473ffffffffffffffffffffffffffffffffffffffff1673ffffffffffffffffffffffffffffffffffffffff168152602001908152602001600020600082825461115e9190612a4f565b92505081905550816002600083815260200190815260200160002060006101000a81548173ffffffffffffffffffffffffffffffffffffffff021916908373ffffffffffffffffffffffffffffffffffffffff160217905550808273ffffffffffffffffffffffffffffffffffffffff168473ffffffffffffffffffffffffffffffffffffffff167fddf252ad1be2c89b69c2b068fc378daa952ba7f163c4a11628f55a4df523b3ef60405160405180910390a461121d838383611954565b505050565b61122a610e65565b73ffffffffffffffffffffffffffffffffffffffff16611248610851565b73ffffffffffffffffffffffffffffffffffffffff161461129e576040517f08c379a000000000000000000000000000000000000000000000000000000000815260040161129590612af1565b60405180910390fd5b565b6000600660009054906101000a900473ffffffffffffffffffffffffffffffffffffffff16905081600660006101000a81548173ffffffffffffffffffffffffffffffffffffffff021916908373ffffffffffffffffffffffffffffffffffffffff1602179055508173ffffffffffffffffffffffffffffffffffffffff168173ffffffffffffffffffffffffffffffffffffffff167f8be0079c531659141344cd1fd0a4f28419497f9722a3daafe3b4186f6b6457e060405160405180910390a35050565b600081600001549050919050565b8173ffffffffffffffffffffffffffffffffffffffff168373ffffffffffffffffffffffffffffffffffffffff1614156113e3576040517f08c379a00000000000000000000000000000000000000000000000000000000081526004016113da90612b5d565b60405180910390fd5b80600560008573ffffffffffffffffffffffffffffffffffffffff1673ffffffffffffffffffffffffffffffffffffffff16815260200190815260200160002060008473ffffffffffffffffffffffffffffffffffffffff1673ffffffffffffffffffffffffffffffffffffffff16815260200190815260200160002060006101000a81548160ff0219169083151502179055508173ffffffffffffffffffffffffffffffffffffffff168373ffffffffffffffffffffffffffffffffffffffff167f17307eab39ab6107e8899845ad3d59bd9653f200f220920489ca2b5937696c31836040516114d49190611ca1565b60405180910390a3505050565b6114ec848484610fbb565b6114f884848484611959565b611537576040517f08c379a000000000000000000000000000000000000000000000000000000000815260040161152e90612bef565b60405180910390fd5b50505050565b606060405180602001604052806000815250905090565b6060600082141561159c576040518060400160405280600181526020017f300000000000000000000000000000000000000000000000000000000000000081525090506116b0565b600082905060005b600082146115ce5780806115b7906127f0565b915050600a826115c79190612c3e565b91506115a4565b60008167ffffffffffffffff8111156115ea576115e961215e565b5b6040519080825280601f01601f19166020018201604052801561161c5781602001600182028036833780820191505090505b5090505b600085146116a957600182611635919061278d565b9150600a856116449190612c6f565b60306116509190612a4f565b60f81b818381518110611666576116656127c1565b5b60200101907effffffffffffffffffffffffffffffffffffffffffffffffffffffffffffff1916908160001a905350600a856116a29190612c3e565b9450611620565b8093505050505b919050565b6001816000016000828254019250508190555050565b600073ffffffffffffffffffffffffffffffffffffffff168273ffffffffffffffffffffffffffffffffffffffff16141561173b576040517f08c379a000000000000000000000000000000000000000000000000000000000815260040161173290612cec565b60405180910390fd5b611744816118e3565b15611784576040517f08c379a000000000000000000000000000000000000000000000000000000000815260040161177b90612d58565b60405180910390fd5b6117906000838361194f565b6001600360008473ffffffffffffffffffffffffffffffffffffffff1673ffffffffffffffffffffffffffffffffffffffff16815260200190815260200160002060008282546117e09190612a4f565b92505081905550816002600083815260200190815260200160002060006101000a81548173ffffffffffffffffffffffffffffffffffffffff021916908373ffffffffffffffffffffffffffffffffffffffff160217905550808273ffffffffffffffffffffffffffffffffffffffff16600073ffffffffffffffffffffffffffffffffffffffff167fddf252ad1be2c89b69c2b068fc378daa952ba7f163c4a11628f55a4df523b3ef60405160405180910390a46118a160008383611954565b5050565b6118ae826118e3565b6118b757600080fd5b806008600084815260200190815260200160002090805190602001906118de929190611b4a565b505050565b60008073ffffffffffffffffffffffffffffffffffffffff166002600084815260200190815260200160002060009054906101000a900473ffffffffffffffffffffffffffffffffffffffff1673ffffffffffffffffffffffffffffffffffffffff1614159050919050565b505050565b505050565b600061197a8473ffffffffffffffffffffffffffffffffffffffff16611af0565b15611ae3578373ffffffffffffffffffffffffffffffffffffffff1663150b7a026119a3610e65565b8786866040518563ffffffff1660e01b81526004016119c59493929190612dcd565b602060405180830381600087803b1580156119df57600080fd5b505af1925050508015611a1057506040513d601f19601f82011682018060405250810190611a0d9190612e2e565b60015b611a93573d8060008114611a40576040519150601f19603f3d011682016040523d82523d6000602084013e611a45565b606091505b50600081511415611a8b576040517f08c379a0000000000000000000000000000000000000000000000000000000008152600401611a8290612bef565b60405180910390fd5b805181602001fd5b63150b7a0260e01b7bffffffffffffffffffffffffffffffffffffffffffffffffffffffff1916817bffffffffffffffffffffffffffffffffffffffffffffffffffffffff191614915050611ae8565b600190505b949350505050565b6000808273ffffffffffffffffffffffffffffffffffffffff163b119050919050565b604051806060016040528060008152602001600073ffffffffffffffffffffffffffffffffffffffff168152602001606081525090565b828054611b5690612478565b90600052602060002090601f016020900481019282611b785760008555611bbf565b82601f10611b9157805160ff1916838001178555611bbf565b82800160010185558215611bbf579182015b82811115611bbe578251825591602001919060010190611ba3565b5b509050611bcc9190611bd0565b5090565b5b80821115611be9576000816000905550600101611bd1565b5090565b6000604051905090565b600080fd5b600080fd5b60007fffffffff0000000000000000000000000000000000000000000000000000000082169050919050565b611c3681611c01565b8114611c4157600080fd5b50565b600081359050611c5381611c2d565b92915050565b600060208284031215611c6f57611c6e611bf7565b5b6000611c7d84828501611c44565b91505092915050565b60008115159050919050565b611c9b81611c86565b82525050565b6000602082019050611cb66000830184611c92565b92915050565b600081519050919050565b600082825260208201905092915050565b60005b83811015611cf6578082015181840152602081019050611cdb565b83811115611d05576000848401525b50505050565b6000601f19601f8301169050919050565b6000611d2782611cbc565b611d318185611cc7565b9350611d41818560208601611cd8565b611d4a81611d0b565b840191505092915050565b60006020820190508181036000830152611d6f8184611d1c565b905092915050565b6000819050919050565b611d8a81611d77565b8114611d9557600080fd5b50565b600081359050611da781611d81565b92915050565b600060208284031215611dc357611dc2611bf7565b5b6000611dd184828501611d98565b91505092915050565b600073ffffffffffffffffffffffffffffffffffffffff82169050919050565b6000611e0582611dda565b9050919050565b611e1581611dfa565b82525050565b6000602082019050611e306000830184611e0c565b92915050565b611e3f81611dfa565b8114611e4a57600080fd5b50565b600081359050611e5c81611e36565b92915050565b60008060408385031215611e7957611e78611bf7565b5b6000611e8785828601611e4d565b9250506020611e9885828601611d98565b9150509250929050565b600080600060608486031215611ebb57611eba611bf7565b5b6000611ec986828701611e4d565b9350506020611eda86828701611e4d565b9250506040611eeb86828701611d98565b9150509250925092565b600060208284031215611f0b57611f0a611bf7565b5b6000611f1984828501611e4d565b91505092915050565b611f2b81611d77565b82525050565b6000602082019050611f466000830184611f22565b92915050565b600081519050919050565b600082825260208201905092915050565b6000819050602082019050919050565b611f8181611d77565b82525050565b611f9081611dfa565b82525050565b600082825260208201905092915050565b6000611fb282611cbc565b611fbc8185611f96565b9350611fcc818560208601611cd8565b611fd581611d0b565b840191505092915050565b6000606083016000830151611ff86000860182611f78565b50602083015161200b6020860182611f87565b50604083015184820360408601526120238282611fa7565b9150508091505092915050565b600061203c8383611fe0565b905092915050565b6000602082019050919050565b600061205c82611f4c565b6120668185611f57565b93508360208202850161207885611f68565b8060005b858110156120b457848403895281516120958582612030565b94506120a083612044565b925060208a0199505060018101905061207c565b50829750879550505050505092915050565b600060208201905081810360008301526120e08184612051565b905092915050565b6120f181611c86565b81146120fc57600080fd5b50565b60008135905061210e816120e8565b92915050565b6000806040838503121561212b5761212a611bf7565b5b600061213985828601611e4d565b925050602061214a858286016120ff565b9150509250929050565b600080fd5b600080fd5b7f4e487b7100000000000000000000000000000000000000000000000000000000600052604160045260246000fd5b61219682611d0b565b810181811067ffffffffffffffff821117156121b5576121b461215e565b5b80604052505050565b60006121c8611bed565b90506121d4828261218d565b919050565b600067ffffffffffffffff8211156121f4576121f361215e565b5b6121fd82611d0b565b9050602081019050919050565b82818337600083830152505050565b600061222c612227846121d9565b6121be565b90508281526020810184848401111561224857612247612159565b5b61225384828561220a565b509392505050565b600082601f8301126122705761226f612154565b5b8135612280848260208601612219565b91505092915050565b600080600080608085870312156122a3576122a2611bf7565b5b60006122b187828801611e4d565b94505060206122c287828801611e4d565b93505060406122d387828801611d98565b925050606085013567ffffffffffffffff8111156122f4576122f3611bfc565b5b6123008782880161225b565b91505092959194509250565b600067ffffffffffffffff8211156123275761232661215e565b5b61233082611d0b565b9050602081019050919050565b600061235061234b8461230c565b6121be565b90508281526020810184848401111561236c5761236b612159565b5b61237784828561220a565b509392505050565b600082601f83011261239457612393612154565b5b81356123a484826020860161233d565b91505092915050565b600080604083850312156123c4576123c3611bf7565b5b60006123d285828601611e4d565b925050602083013567ffffffffffffffff8111156123f3576123f2611bfc565b5b6123ff8582860161237f565b9150509250929050565b600080604083850312156124205761241f611bf7565b5b600061242e85828601611e4d565b925050602061243f85828601611e4d565b9150509250929050565b7f4e487b7100000000000000000000000000000000000000000000000000000000600052602260045260246000fd5b6000600282049050600182168061249057607f821691505b602082108114156124a4576124a3612449565b5b50919050565b7f4552433732313a20617070726f76616c20746f2063757272656e74206f776e6560008201527f7200000000000000000000000000000000000000000000000000000000000000602082015250565b6000612506602183611cc7565b9150612511826124aa565b604082019050919050565b60006020820190508181036000830152612535816124f9565b9050919050565b7f4552433732313a20617070726f76652063616c6c6572206973206e6f7420746f60008201527f6b656e206f776e6572206e6f7220617070726f76656420666f7220616c6c0000602082015250565b6000612598603e83611cc7565b91506125a38261253c565b604082019050919050565b600060208201905081810360008301526125c78161258b565b9050919050565b7f4552433732313a2063616c6c6572206973206e6f7420746f6b656e206f776e6560008201527f72206e6f7220617070726f766564000000000000000000000000000000000000602082015250565b600061262a602e83611cc7565b9150612635826125ce565b604082019050919050565b600060208201905081810360008301526126598161261d565b9050919050565b7f4552433732313a20696e76616c696420746f6b656e2049440000000000000000600082015250565b6000612696601883611cc7565b91506126a182612660565b602082019050919050565b600060208201905081810360008301526126c581612689565b9050919050565b7f4552433732313a2061646472657373207a65726f206973206e6f74206120766160008201527f6c6964206f776e65720000000000000000000000000000000000000000000000602082015250565b6000612728602983611cc7565b9150612733826126cc565b604082019050919050565b600060208201905081810360008301526127578161271b565b9050919050565b7f4e487b7100000000000000000000000000000000000000000000000000000000600052601160045260246000fd5b600061279882611d77565b91506127a383611d77565b9250828210156127b6576127b561275e565b5b828203905092915050565b7f4e487b7100000000000000000000000000000000000000000000000000000000600052603260045260246000fd5b60006127fb82611d77565b91507fffffffffffffffffffffffffffffffffffffffffffffffffffffffffffffffff82141561282e5761282d61275e565b5b600182019050919050565b600081905092915050565b600061284f82611cbc565b6128598185612839565b9350612869818560208601611cd8565b80840191505092915050565b60006128818285612844565b915061288d8284612844565b91508190509392505050565b7f4f776e61626c653a206e6577206f776e657220697320746865207a65726f206160008201527f6464726573730000000000000000000000000000000000000000000000000000602082015250565b60006128f5602683611cc7565b915061290082612899565b604082019050919050565b60006020820190508181036000830152612924816128e8565b9050919050565b7f4552433732313a207472616e736665722066726f6d20696e636f72726563742060008201527f6f776e6572000000000000000000000000000000000000000000000000000000602082015250565b6000612987602583611cc7565b91506129928261292b565b604082019050919050565b600060208201905081810360008301526129b68161297a565b9050919050565b7f4552433732313a207472616e7366657220746f20746865207a65726f2061646460008201527f7265737300000000000000000000000000000000000000000000000000000000602082015250565b6000612a19602483611cc7565b9150612a24826129bd565b604082019050919050565b60006020820190508181036000830152612a4881612a0c565b9050919050565b6000612a5a82611d77565b9150612a6583611d77565b9250827fffffffffffffffffffffffffffffffffffffffffffffffffffffffffffffffff03821115612a9a57612a9961275e565b5b828201905092915050565b7f4f776e61626c653a2063616c6c6572206973206e6f7420746865206f776e6572600082015250565b6000612adb602083611cc7565b9150612ae682612aa5565b602082019050919050565b60006020820190508181036000830152612b0a81612ace565b9050919050565b7f4552433732313a20617070726f766520746f2063616c6c657200000000000000600082015250565b6000612b47601983611cc7565b9150612b5282612b11565b602082019050919050565b60006020820190508181036000830152612b7681612b3a565b9050919050565b7f4552433732313a207472616e7366657220746f206e6f6e20455243373231526560008201527f63656976657220696d706c656d656e7465720000000000000000000000000000602082015250565b6000612bd9603283611cc7565b9150612be482612b7d565b604082019050919050565b60006020820190508181036000830152612c0881612bcc565b9050919050565b7f4e487b7100000000000000000000000000000000000000000000000000000000600052601260045260246000fd5b6000612c4982611d77565b9150612c5483611d77565b925082612c6457612c63612c0f565b5b828204905092915050565b6000612c7a82611d77565b9150612c8583611d77565b925082612c9557612c94612c0f565b5b828206905092915050565b7f4552433732313a206d696e7420746f20746865207a65726f2061646472657373600082015250565b6000612cd6602083611cc7565b9150612ce182612ca0565b602082019050919050565b60006020820190508181036000830152612d0581612cc9565b9050919050565b7f4552433732313a20746f6b656e20616c7265616479206d696e74656400000000600082015250565b6000612d42601c83611cc7565b9150612d4d82612d0c565b602082019050919050565b60006020820190508181036000830152612d7181612d35565b9050919050565b600081519050919050565b600082825260208201905092915050565b6000612d9f82612d78565b612da98185612d83565b9350612db9818560208601611cd8565b612dc281611d0b565b840191505092915050565b6000608082019050612de26000830187611e0c565b612def6020830186611e0c565b612dfc6040830185611f22565b8181036060830152612e0e8184612d94565b905095945050505050565b600081519050612e2881611c2d565b92915050565b600060208284031215612e4457612e43611bf7565b5b6000612e5284828501612e19565b9150509291505056fea264697066735822122069504f5a723bf9f7da72f75286c618084bac4d20e1513785dee4a5c53c3388f164736f6c63430008090033",
  "linkReferences": {},
  "deployedLinkReferences": {}
}